{
  "address": "0x488845C2F2bD401Fec96ec24f97796FCc142Cf03",
  "abi": [
    {
      "inputs": [
        {
          "internalType": "address",
          "name": "_rewardToken",
          "type": "address"
        }
      ],
      "stateMutability": "nonpayable",
      "type": "constructor"
    },
    {
      "inputs": [],
      "name": "CampaignExpired",
      "type": "error"
    },
    {
      "inputs": [],
      "name": "CampaignNotActive",
      "type": "error"
    },
    {
      "inputs": [],
      "name": "EnforcedPause",
      "type": "error"
    },
    {
      "inputs": [],
      "name": "ExpectedPause",
      "type": "error"
    },
    {
      "inputs": [],
      "name": "ExternalCallFailed",
      "type": "error"
    },
    {
      "inputs": [],
      "name": "InsufficientBurnAmount",
      "type": "error"
    },
    {
      "inputs": [],
      "name": "MaxRewardsReached",
      "type": "error"
    },
    {
      "inputs": [
        {
          "internalType": "address",
          "name": "owner",
          "type": "address"
        }
      ],
      "name": "OwnableInvalidOwner",
      "type": "error"
    },
    {
      "inputs": [
        {
          "internalType": "address",
          "name": "account",
          "type": "address"
        }
      ],
      "name": "OwnableUnauthorizedAccount",
      "type": "error"
    },
    {
      "inputs": [],
      "name": "ReentrancyGuardReentrantCall",
      "type": "error"
    },
    {
      "inputs": [
        {
          "internalType": "address",
          "name": "token",
          "type": "address"
        }
      ],
      "name": "SafeERC20FailedOperation",
      "type": "error"
    },
    {
      "anonymous": false,
      "inputs": [
        {
          "indexed": true,
          "internalType": "uint256",
          "name": "campaignId",
          "type": "uint256"
        },
        {
          "indexed": false,
          "internalType": "uint256",
          "name": "minBurnAmount",
          "type": "uint256"
        },
        {
          "indexed": false,
          "internalType": "uint256",
          "name": "endDate",
          "type": "uint256"
        },
        {
          "indexed": false,
          "internalType": "address",
          "name": "tokenAddress",
          "type": "address"
        },
        {
          "indexed": false,
          "internalType": "address",
          "name": "recipientAddress",
          "type": "address"
        }
      ],
      "name": "CampaignCreated",
      "type": "event"
    },
    {
      "anonymous": false,
      "inputs": [
        {
          "indexed": true,
          "internalType": "uint256",
          "name": "campaignId",
          "type": "uint256"
        }
      ],
      "name": "CampaignDeactivated",
      "type": "event"
    },
    {
      "anonymous": false,
      "inputs": [
        {
          "indexed": true,
          "internalType": "uint256",
          "name": "campaignId",
          "type": "uint256"
        }
      ],
      "name": "CampaignModified",
      "type": "event"
    },
    {
      "anonymous": false,
      "inputs": [
        {
          "indexed": true,
          "internalType": "address",
          "name": "previousOwner",
          "type": "address"
        },
        {
          "indexed": true,
          "internalType": "address",
          "name": "newOwner",
          "type": "address"
        }
      ],
      "name": "OwnershipTransferred",
      "type": "event"
    },
    {
      "anonymous": false,
      "inputs": [
        {
          "indexed": false,
          "internalType": "address",
          "name": "account",
          "type": "address"
        }
      ],
      "name": "Paused",
      "type": "event"
    },
    {
      "anonymous": false,
      "inputs": [
        {
          "indexed": true,
          "internalType": "uint256",
          "name": "campaignId",
          "type": "uint256"
        },
        {
          "indexed": true,
          "internalType": "address",
          "name": "user",
          "type": "address"
        },
        {
          "indexed": false,
          "internalType": "uint256",
          "name": "burnAmount",
          "type": "uint256"
        },
        {
          "indexed": false,
          "internalType": "bool",
          "name": "externalCallSuccess",
          "type": "bool"
        }
      ],
      "name": "RewardTriggered",
      "type": "event"
    },
    {
      "anonymous": false,
      "inputs": [
        {
          "indexed": true,
          "internalType": "address",
          "name": "token",
          "type": "address"
        },
        {
          "indexed": false,
          "internalType": "uint256",
          "name": "amount",
          "type": "uint256"
        }
      ],
      "name": "TokensRecovered",
      "type": "event"
    },
    {
      "anonymous": false,
      "inputs": [
        {
          "indexed": false,
          "internalType": "address",
          "name": "account",
          "type": "address"
        }
      ],
      "name": "Unpaused",
      "type": "event"
    },
    {
      "inputs": [
        {
          "internalType": "uint256",
          "name": "",
          "type": "uint256"
        }
      ],
      "name": "allCampaignIds",
      "outputs": [
        {
          "internalType": "uint256",
          "name": "",
          "type": "uint256"
        }
      ],
      "stateMutability": "view",
      "type": "function"
    },
    {
      "inputs": [
        {
          "internalType": "uint256",
          "name": "",
          "type": "uint256"
        }
      ],
      "name": "campaignIdToArrayIndex",
      "outputs": [
        {
          "internalType": "uint256",
          "name": "",
          "type": "uint256"
        }
      ],
      "stateMutability": "view",
      "type": "function"
    },
    {
      "inputs": [
        {
          "internalType": "uint256",
          "name": "",
          "type": "uint256"
        }
      ],
      "name": "campaigns",
      "outputs": [
        {
          "internalType": "uint256",
          "name": "minBurnAmount",
          "type": "uint256"
        },
        {
          "internalType": "uint256",
          "name": "endDate",
          "type": "uint256"
        },
        {
          "internalType": "uint256",
          "name": "maxRewards",
          "type": "uint256"
        },
        {
          "internalType": "uint256",
          "name": "rewardsIssued",
          "type": "uint256"
        },
        {
          "internalType": "address",
          "name": "targetContract",
          "type": "address"
        },
        {
          "internalType": "bytes",
          "name": "targetCalldata",
          "type": "bytes"
        },
        {
          "internalType": "bool",
          "name": "isActive",
          "type": "bool"
        },
        {
          "internalType": "uint256",
          "name": "createdAt",
          "type": "uint256"
        },
        {
          "internalType": "address",
          "name": "tokenAddress",
          "type": "address"
        },
        {
          "internalType": "address",
          "name": "recipientAddress",
          "type": "address"
        }
      ],
      "stateMutability": "view",
      "type": "function"
    },
    {
      "inputs": [
        {
          "internalType": "uint256",
          "name": "minBurnAmount",
          "type": "uint256"
        },
        {
          "internalType": "uint256",
          "name": "endDate",
          "type": "uint256"
        },
        {
          "internalType": "uint256",
          "name": "maxRewards",
          "type": "uint256"
        },
        {
          "internalType": "address",
          "name": "targetContract",
          "type": "address"
        },
        {
          "internalType": "bytes",
          "name": "targetCalldata",
          "type": "bytes"
        },
        {
          "internalType": "address",
          "name": "tokenAddress",
          "type": "address"
        },
        {
          "internalType": "address",
          "name": "recipientAddress",
          "type": "address"
        }
      ],
      "name": "createCampaign",
      "outputs": [],
      "stateMutability": "nonpayable",
      "type": "function"
    },
    {
      "inputs": [
        {
          "internalType": "uint256",
          "name": "campaignId",
          "type": "uint256"
        }
      ],
      "name": "deactivateCampaign",
      "outputs": [],
      "stateMutability": "nonpayable",
      "type": "function"
    },
    {
      "inputs": [
        {
          "internalType": "uint256",
          "name": "startIndex",
          "type": "uint256"
        },
        {
          "internalType": "uint256",
          "name": "endIndex",
          "type": "uint256"
        }
      ],
      "name": "getActiveCampaigns",
      "outputs": [
        {
          "internalType": "uint256[]",
          "name": "campaignIds",
          "type": "uint256[]"
        },
        {
          "components": [
            {
              "internalType": "uint256",
              "name": "minBurnAmount",
              "type": "uint256"
            },
            {
              "internalType": "uint256",
              "name": "endDate",
              "type": "uint256"
            },
            {
              "internalType": "uint256",
              "name": "maxRewards",
              "type": "uint256"
            },
            {
              "internalType": "uint256",
              "name": "rewardsIssued",
              "type": "uint256"
            },
            {
              "internalType": "address",
              "name": "targetContract",
              "type": "address"
            },
            {
              "internalType": "bytes",
              "name": "targetCalldata",
              "type": "bytes"
            },
            {
              "internalType": "bool",
              "name": "isActive",
              "type": "bool"
            },
            {
              "internalType": "uint256",
              "name": "createdAt",
              "type": "uint256"
            },
            {
              "internalType": "address",
              "name": "tokenAddress",
              "type": "address"
            },
            {
              "internalType": "address",
              "name": "recipientAddress",
              "type": "address"
            }
          ],
          "internalType": "struct RewardsMarket.Campaign[]",
          "name": "details",
          "type": "tuple[]"
        }
      ],
      "stateMutability": "view",
      "type": "function"
    },
    {
      "inputs": [
        {
          "internalType": "uint256",
          "name": "campaignId",
          "type": "uint256"
        }
      ],
      "name": "getCampaign",
      "outputs": [
        {
          "internalType": "uint256",
          "name": "minBurnAmount",
          "type": "uint256"
        },
        {
          "internalType": "uint256",
          "name": "endDate",
          "type": "uint256"
        },
        {
          "internalType": "uint256",
          "name": "maxRewards",
          "type": "uint256"
        },
        {
          "internalType": "uint256",
          "name": "rewardsIssued",
          "type": "uint256"
        },
        {
          "internalType": "address",
          "name": "targetContract",
          "type": "address"
        },
        {
          "internalType": "bytes",
          "name": "targetCalldata",
          "type": "bytes"
        },
        {
          "internalType": "bool",
          "name": "isActive",
          "type": "bool"
        },
        {
          "internalType": "uint256",
          "name": "createdAt",
          "type": "uint256"
        },
        {
          "internalType": "address",
          "name": "tokenAddress",
          "type": "address"
        },
        {
          "internalType": "address",
          "name": "recipientAddress",
          "type": "address"
        }
      ],
      "stateMutability": "view",
      "type": "function"
    },
    {
      "inputs": [
        {
          "internalType": "uint256",
          "name": "startIndex",
          "type": "uint256"
        },
        {
          "internalType": "uint256",
          "name": "endIndex",
          "type": "uint256"
        }
      ],
      "name": "getCampaignIds",
      "outputs": [
        {
          "internalType": "uint256[]",
          "name": "",
          "type": "uint256[]"
        }
      ],
      "stateMutability": "view",
      "type": "function"
    },
    {
      "inputs": [
        {
          "internalType": "uint256",
          "name": "startIndex",
          "type": "uint256"
        },
        {
          "internalType": "uint256",
          "name": "endIndex",
          "type": "uint256"
        }
      ],
      "name": "getInactiveCampaigns",
      "outputs": [
        {
          "internalType": "uint256[]",
          "name": "campaignIds",
          "type": "uint256[]"
        },
        {
          "components": [
            {
              "internalType": "uint256",
              "name": "minBurnAmount",
              "type": "uint256"
            },
            {
              "internalType": "uint256",
              "name": "endDate",
              "type": "uint256"
            },
            {
              "internalType": "uint256",
              "name": "maxRewards",
              "type": "uint256"
            },
            {
              "internalType": "uint256",
              "name": "rewardsIssued",
              "type": "uint256"
            },
            {
              "internalType": "address",
              "name": "targetContract",
              "type": "address"
            },
            {
              "internalType": "bytes",
              "name": "targetCalldata",
              "type": "bytes"
            },
            {
              "internalType": "bool",
              "name": "isActive",
              "type": "bool"
            },
            {
              "internalType": "uint256",
              "name": "createdAt",
              "type": "uint256"
            },
            {
              "internalType": "address",
              "name": "tokenAddress",
              "type": "address"
            },
            {
              "internalType": "address",
              "name": "recipientAddress",
              "type": "address"
            }
          ],
          "internalType": "struct RewardsMarket.Campaign[]",
          "name": "details",
          "type": "tuple[]"
        }
      ],
      "stateMutability": "view",
      "type": "function"
    },
    {
      "inputs": [],
      "name": "getTotalCampaigns",
      "outputs": [
        {
          "internalType": "uint256",
          "name": "",
          "type": "uint256"
        }
      ],
      "stateMutability": "view",
      "type": "function"
    },
    {
      "inputs": [
        {
          "internalType": "address",
          "name": "user",
          "type": "address"
        },
        {
          "internalType": "uint256",
          "name": "campaignId",
          "type": "uint256"
        }
      ],
      "name": "getUserParticipationCount",
      "outputs": [
        {
          "internalType": "uint256",
          "name": "",
          "type": "uint256"
        }
      ],
      "stateMutability": "view",
      "type": "function"
    },
    {
      "inputs": [
        {
          "internalType": "uint256",
          "name": "campaignId",
          "type": "uint256"
        },
        {
          "internalType": "uint256",
          "name": "minBurnAmount",
          "type": "uint256"
        },
        {
          "internalType": "uint256",
          "name": "endDate",
          "type": "uint256"
        },
        {
          "internalType": "uint256",
          "name": "maxRewards",
          "type": "uint256"
        },
        {
          "internalType": "address",
          "name": "targetContract",
          "type": "address"
        },
        {
          "internalType": "bytes",
          "name": "targetCalldata",
          "type": "bytes"
        },
        {
          "internalType": "address",
          "name": "tokenAddress",
          "type": "address"
        },
        {
          "internalType": "address",
          "name": "recipientAddress",
          "type": "address"
        }
      ],
      "name": "modifyCampaign",
      "outputs": [],
      "stateMutability": "nonpayable",
      "type": "function"
    },
    {
      "inputs": [],
      "name": "nextCampaignId",
      "outputs": [
        {
          "internalType": "uint256",
          "name": "",
          "type": "uint256"
        }
      ],
      "stateMutability": "view",
      "type": "function"
    },
    {
      "inputs": [],
      "name": "owner",
      "outputs": [
        {
          "internalType": "address",
          "name": "",
          "type": "address"
        }
      ],
      "stateMutability": "view",
      "type": "function"
    },
    {
      "inputs": [],
      "name": "pause",
      "outputs": [],
      "stateMutability": "nonpayable",
      "type": "function"
    },
    {
      "inputs": [],
      "name": "paused",
      "outputs": [
        {
          "internalType": "bool",
          "name": "",
          "type": "bool"
        }
      ],
      "stateMutability": "view",
      "type": "function"
    },
    {
      "inputs": [
        {
          "internalType": "contract IERC20",
          "name": "token",
          "type": "address"
        },
        {
          "internalType": "address",
          "name": "to",
          "type": "address"
        },
        {
          "internalType": "uint256",
          "name": "amount",
          "type": "uint256"
        }
      ],
      "name": "recoverTokens",
      "outputs": [],
      "stateMutability": "nonpayable",
      "type": "function"
    },
    {
      "inputs": [],
      "name": "renounceOwnership",
      "outputs": [],
      "stateMutability": "nonpayable",
      "type": "function"
    },
    {
      "inputs": [],
      "name": "rewardToken",
      "outputs": [
        {
          "internalType": "contract RewardToken",
          "name": "",
          "type": "address"
        }
      ],
      "stateMutability": "view",
      "type": "function"
    },
    {
      "inputs": [
        {
          "internalType": "address",
          "name": "newOwner",
          "type": "address"
        }
      ],
      "name": "transferOwnership",
      "outputs": [],
      "stateMutability": "nonpayable",
      "type": "function"
    },
    {
      "inputs": [
        {
          "internalType": "uint256",
          "name": "campaignId",
          "type": "uint256"
        },
        {
          "internalType": "uint256",
          "name": "burnAmount",
          "type": "uint256"
        }
      ],
      "name": "triggerReward",
      "outputs": [],
      "stateMutability": "nonpayable",
      "type": "function"
    },
    {
      "inputs": [],
      "name": "unpause",
      "outputs": [],
      "stateMutability": "nonpayable",
      "type": "function"
    },
    {
      "inputs": [
        {
          "internalType": "address",
          "name": "",
          "type": "address"
        },
        {
          "internalType": "uint256",
          "name": "",
          "type": "uint256"
        }
      ],
      "name": "userParticipation",
      "outputs": [
        {
          "internalType": "uint256",
          "name": "",
          "type": "uint256"
        }
      ],
      "stateMutability": "view",
      "type": "function"
    }
  ],
  "transactionHash": "0x13d9b01d76ba1b60ec1885576563a022b659a33429b659030b93fd159a5a5a44",
  "args": [
    "0x61832d72354Cdb5391b31D0364b89C25DA462D89"
  ],
  "numDeployments": 1,
  "solcInputHash": "01a6ba140d4da63d1adb4e023fc46db0",
  "bytecode": "0x60a06040523480156200001157600080fd5b50604051620021e4380380620021e48339810160408190526200003491620000d7565b33806200005b57604051631e4fbdf760e01b81526000600482015260240160405180910390fd5b620000668162000087565b50600180556002805460ff191690556001600160a01b031660805262000109565b600080546001600160a01b038381166001600160a01b0319831681178455604051919092169283917f8be0079c531659141344cd1fd0a4f28419497f9722a3daafe3b4186f6b6457e09190a35050565b600060208284031215620000ea57600080fd5b81516001600160a01b03811681146200010257600080fd5b9392505050565b6080516120b86200012c60003960008181610343015261085f01526120b86000f3fe608060405234801561001057600080fd5b506004361061014d5760003560e01c80638456cb59116100c3578063d34562781161007c578063d3456278146102d2578063d729f77b146102e5578063efa78b33146102f8578063f2fde38b1461030b578063f31b3c4f1461031e578063f7c618c11461033e57600080fd5b80638456cb59146102265780638da5cb5b1461022e57806397f7f17414610253578063ade401d814610266578063b653145814610286578063c707ea3f146102a757600080fd5b80635c975abb116101155780635c975abb146101c65780635f3e849f146101dc5780636a870be6146101ef578063715018a6146102025780637903a7561461020a5780637eca30fe1461021357600080fd5b8063141961bc1461015257806316f43dd41461018457806331c3bbb1146101965780633f4ba83a146101ab5780635598f8cc146101b3575b600080fd5b6101656101603660046118c1565b610365565b60405161017b9a99989796959493929190611920565b60405180910390f35b6006545b60405190815260200161017b565b6101a96101a43660046119e8565b61045b565b005b6101a9610573565b6101656101c13660046118c1565b610585565b60025460ff16604051901515815260200161017b565b6101a96101ea366004611a8b565b6106a6565b6101a96101fd366004611acc565b61071d565b6101a9610a3b565b61018860045481565b6101a96102213660046118c1565b610a4d565b6101a9610aef565b6000546001600160a01b03165b6040516001600160a01b03909116815260200161017b565b610188610261366004611aee565b610aff565b610279610274366004611acc565b610b2a565b60405161017b9190611b55565b610299610294366004611acc565b610c2c565b60405161017b929190611b6f565b6101886102b5366004611aee565b600560209081526000928352604080842090915290825290205481565b6101886102e03660046118c1565b610fb9565b6101a96102f3366004611c6e565b610fda565b610299610306366004611acc565b6111ff565b6101a9610319366004611d07565b611587565b61018861032c3660046118c1565b60076020526000908152604090205481565b61023b7f000000000000000000000000000000000000000000000000000000000000000081565b600360208190526000918252604090912080546001820154600283015493830154600484015460058501805494969395939492936001600160a01b03909216926103ae90611d24565b80601f01602080910402602001604051908101604052809291908181526020018280546103da90611d24565b80156104275780601f106103fc57610100808354040283529160200191610427565b820191906000526020600020905b81548152906001019060200180831161040a57829003601f168201915b505050600684015460078501546008860154600990960154949560ff909216949093506001600160a01b039182169250168a565b6104636115c5565b6000898152600360205260409020600681015460ff166104ca5760405162461bcd60e51b815260206004820152601760248201527f43616d706169676e20646f6573206e6f7420657869737400000000000000000060448201526064015b60405180910390fd5b88815560018101889055600281018790556004810180546001600160a01b0319166001600160a01b03881617905560058101610507858783611dc2565b506008810180546001600160a01b038086166001600160a01b031992831617909255600983018054928516929091169190911790556040518a907f5b7669af918ca3f4bd3cbd26646bae0964c718ded8c46169bd586dd6fd9f277e90600090a250505050505050505050565b61057b6115c5565b6105836115f2565b565b6000818152600360208190526040822080546001820154600283015493830154600484015460068501546007860154600887015460098801546005890180548c9b8c9b8c9b8c9b60609b8d9b8c9b8c9b8c9b969a9599949893966001600160a01b039384169660ff909316949193908116921690859061060490611d24565b80601f016020809104026020016040519081016040528092919081815260200182805461063090611d24565b801561067d5780601f106106525761010080835404028352916020019161067d565b820191906000526020600020905b81548152906001019060200180831161066057829003601f168201915b505050505094509a509a509a509a509a509a509a509a509a509a50509193959799509193959799565b6106ae6115c5565b6001600160a01b0382166107045760405162461bcd60e51b815260206004820152601e60248201527f43616e6e6f74207265636f76657220746f207a65726f2061646472657373000060448201526064016104c1565b6107186001600160a01b0384168383611644565b505050565b6107256116a3565b61072d6116cd565b6000828152600360205260409020600681015460ff166107605760405163219a945b60e11b815260040160405180910390fd5b6001810154158015906107765750806001015442115b1561079457604051638320b48360e01b815260040160405180910390fd5b6002810154158015906107af57508060020154816003015410155b156107cd57604051635681f00560e01b815260040160405180910390fd5b80548210156107ef5760405163f4c41e4760e01b815260040160405180910390fd5b60038101805490600061080183611e99565b9091555050336000908152600560209081526040808320868452909152812080549161082c83611e99565b909155505060088101546001600160a01b03166108c85760405163079cc67960e41b8152336004820152602481018390527f00000000000000000000000000000000000000000000000000000000000000006001600160a01b0316906379cc679090604401600060405180830381600087803b1580156108ab57600080fd5b505af11580156108bf573d6000803e3d6000fd5b50505050610950565b60098101546001600160a01b031661092d5760405162461bcd60e51b815260206004820152602260248201527f526563697069656e74206e6f742073657420666f7220637573746f6d20746f6b60448201526132b760f11b60648201526084016104c1565b60098101546008820154610950916001600160a01b0391821691339116856116f1565b60048101546001906001600160a01b0316156109ee5760048201546040516001600160a01b0390911690610988906005850190611eb2565b6000604051808303816000865af19150503d80600081146109c5576040519150601f19603f3d011682016040523d82523d6000602084013e6109ca565b606091505b505080915050806109ee5760405163350c20f160e01b815260040160405180910390fd5b604080518481528215156020820152339186917fcc92375c9d8a567195e0f4a6268691b2b90e0e66f989088e0b7b2f5f3508a95f910160405180910390a35050610a3760018055565b5050565b610a436115c5565b6105836000611730565b610a556115c5565b60008181526003602052604090206006015460ff16610aac5760405162461bcd60e51b815260206004820152601360248201527243616d706169676e206e6f742061637469766560681b60448201526064016104c1565b600081815260036020526040808220600601805460ff191690555182917fa8ad368de07a46b4c9632fee456e1227f02e971f82939d68bd4696b2e378dfa791a250565b610af76115c5565b610583611780565b6001600160a01b03821660009081526005602090815260408083208484529091529020545b92915050565b6060818310610b4b5760405162461bcd60e51b81526004016104c190611f28565b600654821115610b6d5760405162461bcd60e51b81526004016104c190611f4f565b6000610b798484611f86565b905060008167ffffffffffffffff811115610b9657610b96611d5e565b604051908082528060200260200182016040528015610bbf578160200160208202803683370190505b50905060005b82811015610c23576006610bd98288611f99565b81548110610be957610be9611fac565b9060005260206000200154828281518110610c0657610c06611fac565b602090810291909101015280610c1b81611e99565b915050610bc5565b50949350505050565b606080828410610c4e5760405162461bcd60e51b81526004016104c190611f28565b600654831115610c705760405162461bcd60e51b81526004016104c190611f4f565b6000610c7c8585611f86565b90506000805b82811015610d285760006006610c98838a611f99565b81548110610ca857610ca8611fac565b6000918252602080832090910154808352600390915260409091206006015490915060ff168015610d0257506000818152600360205260409020600101541580610d02575060008181526003602052604090206001015442105b15610d155782610d1181611e99565b9350505b5080610d2081611e99565b915050610c82565b508067ffffffffffffffff811115610d4257610d42611d5e565b604051908082528060200260200182016040528015610d6b578160200160208202803683370190505b5093508067ffffffffffffffff811115610d8757610d87611d5e565b604051908082528060200260200182016040528015610dc057816020015b610dad611851565b815260200190600190039081610da55790505b5092506000805b83811015610fae5760006006610ddd838b611f99565b81548110610ded57610ded611fac565b60009182526020808320909101548083526003909152604090912060068101549192509060ff168015610e2f575060018101541580610e2f5750428160010154115b15610f995781888581518110610e4757610e47611fac565b6020908102919091018101919091526040805161014081018252835481526001840154928101929092526002830154908201526003820154606082015260048201546001600160a01b03166080820152600582018054839160a0840191610ead90611d24565b80601f0160208091040260200160405190810160405280929190818152602001828054610ed990611d24565b8015610f265780601f10610efb57610100808354040283529160200191610f26565b820191906000526020600020905b815481529060010190602001808311610f0957829003601f168201915b5050509183525050600682015460ff16151560208201526007820154604082015260088201546001600160a01b0390811660608301526009909201549091166080909101528751889086908110610f7f57610f7f611fac565b60200260200101819052508380610f9590611e99565b9450505b50508080610fa690611e99565b915050610dc7565b505050509250929050565b60068181548110610fc957600080fd5b600091825260209091200154905081565b610fe26115c5565b610fea6116cd565b6004805460009182610ffb83611e99565b9190505590506040518061014001604052808a815260200189815260200188815260200160008152602001876001600160a01b0316815260200186868080601f0160208091040260200160405190810160405280939291908181526020018383808284376000920182905250938552505060016020808501829052426040808701919091526001600160a01b038a81166060808901919091528a82166080988901528987526003808552968390208951815593890151948401949094559087015160028301559186015193810193909355928401516004830180546001600160a01b031916919094161790925560a083015190915060058201906110ff9082611fc2565b5060c08201516006828101805460ff19169215159290921790915560e08301516007808401919091556101008401516008840180546001600160a01b03199081166001600160a01b039384161790915561012090950151600990940180549095169381169390931790935580546000858152602094855260408082208390556001830184559290527ff652222313e28459528d920b65115c16c04f3efc82aaedc97be59f3f377c0d3f0184905580518c81529283018b9052858216908301528316606082015281907f37323758a33aed97b5367a7bf83f761fe5a60c1af1dea93eb27fef67265413189060800160405180910390a2505050505050505050565b6060808284106112215760405162461bcd60e51b81526004016104c190611f28565b6006548311156112435760405162461bcd60e51b81526004016104c190611f4f565b600061124f8585611f86565b90506000805b828110156112fe576000600661126b838a611f99565b8154811061127b5761127b611fac565b6000918252602080832090910154808352600390915260409091206006015490915060ff1615806112d85750600081815260036020526040902060010154158015906112d857506000818152600360205260409020600101544210155b156112eb57826112e781611e99565b9350505b50806112f681611e99565b915050611255565b508067ffffffffffffffff81111561131857611318611d5e565b604051908082528060200260200182016040528015611341578160200160208202803683370190505b5093508067ffffffffffffffff81111561135d5761135d611d5e565b60405190808252806020026020018201604052801561139657816020015b611383611851565b81526020019060019003908161137b5790505b5092506000805b83811015610fae57600060066113b3838b611f99565b815481106113c3576113c3611fac565b60009182526020808320909101548083526003909152604090912060068101549192509060ff1615806114085750600181015415801590611408575042816001015411155b15611572578188858151811061142057611420611fac565b6020908102919091018101919091526040805161014081018252835481526001840154928101929092526002830154908201526003820154606082015260048201546001600160a01b03166080820152600582018054839160a084019161148690611d24565b80601f01602080910402602001604051908101604052809291908181526020018280546114b290611d24565b80156114ff5780601f106114d4576101008083540402835291602001916114ff565b820191906000526020600020905b8154815290600101906020018083116114e257829003601f168201915b5050509183525050600682015460ff16151560208201526007820154604082015260088201546001600160a01b039081166060830152600990920154909116608090910152875188908690811061155857611558611fac565b6020026020010181905250838061156e90611e99565b9450505b5050808061157f90611e99565b91505061139d565b61158f6115c5565b6001600160a01b0381166115b957604051631e4fbdf760e01b8152600060048201526024016104c1565b6115c281611730565b50565b6000546001600160a01b031633146105835760405163118cdaa760e01b81523360048201526024016104c1565b6115fa6117bd565b6002805460ff191690557f5db9ee0a495bf2e6ff9c91a7834c1ba4fdd244a5e8aa4e537bd38aeae4b073aa335b6040516001600160a01b03909116815260200160405180910390a1565b6040516001600160a01b0383811660248301526044820183905261071891859182169063a9059cbb906064015b604051602081830303815290604052915060e01b6020820180516001600160e01b0383818316178352505050506117e0565b6002600154036116c657604051633ee5aeb560e01b815260040160405180910390fd5b6002600155565b60025460ff16156105835760405163d93c066560e01b815260040160405180910390fd5b6040516001600160a01b03848116602483015283811660448301526064820183905261172a9186918216906323b872dd90608401611671565b50505050565b600080546001600160a01b038381166001600160a01b0319831681178455604051919092169283917f8be0079c531659141344cd1fd0a4f28419497f9722a3daafe3b4186f6b6457e09190a35050565b6117886116cd565b6002805460ff191660011790557f62e78cea01bee320cd4e420270b5ea74000d11b0c9f74754ebdbfc544b05a2586116273390565b60025460ff1661058357604051638dfc202b60e01b815260040160405180910390fd5b600080602060008451602086016000885af180611803576040513d6000823e3d81fd5b50506000513d9150811561181b578060011415611828565b6001600160a01b0384163b155b1561172a57604051635274afe760e01b81526001600160a01b03851660048201526024016104c1565b6040518061014001604052806000815260200160008152602001600081526020016000815260200160006001600160a01b03168152602001606081526020016000151581526020016000815260200160006001600160a01b0316815260200160006001600160a01b031681525090565b6000602082840312156118d357600080fd5b5035919050565b6000815180845260005b81811015611900576020818501810151868301820152016118e4565b506000602082860101526020601f19601f83011685010191505092915050565b60006101408c83528b60208401528a604084015289606084015260018060a01b03808a1660808501528160a085015261195b8285018a6118da565b97151560c085015260e08401969096525050918316610100830152909116610120909101529695505050505050565b6001600160a01b03811681146115c257600080fd5b60008083601f8401126119b157600080fd5b50813567ffffffffffffffff8111156119c957600080fd5b6020830191508360208285010111156119e157600080fd5b9250929050565b60008060008060008060008060006101008a8c031215611a0757600080fd5b8935985060208a0135975060408a0135965060608a0135955060808a0135611a2e8161198a565b945060a08a013567ffffffffffffffff811115611a4a57600080fd5b611a568c828d0161199f565b90955093505060c08a0135611a6a8161198a565b915060e08a0135611a7a8161198a565b809150509295985092959850929598565b600080600060608486031215611aa057600080fd5b8335611aab8161198a565b92506020840135611abb8161198a565b929592945050506040919091013590565b60008060408385031215611adf57600080fd5b50508035926020909101359150565b60008060408385031215611b0157600080fd5b8235611b0c8161198a565b946020939093013593505050565b600081518084526020808501945080840160005b83811015611b4a57815187529582019590820190600101611b2e565b509495945050505050565b602081526000611b686020830184611b1a565b9392505050565b60006040808352611b8281840186611b1a565b6020848203818601528186518084528284019150828160051b85010183890160005b83811015611c5e57601f1987840301855281518051845286810151878501528881015189850152606080820151908501526080808201516001600160a01b03169085015260a0808201516101408287018190529190611c05838801826118da565b9250505060c080830151611c1c8288018215159052565b505060e08281015190860152610100808301516001600160a01b0390811691870191909152610120928301511691909401529385019390850190600101611ba4565b50909a9950505050505050505050565b60008060008060008060008060e0898b031215611c8a57600080fd5b8835975060208901359650604089013595506060890135611caa8161198a565b9450608089013567ffffffffffffffff811115611cc657600080fd5b611cd28b828c0161199f565b90955093505060a0890135611ce68161198a565b915060c0890135611cf68161198a565b809150509295985092959890939650565b600060208284031215611d1957600080fd5b8135611b688161198a565b600181811c90821680611d3857607f821691505b602082108103611d5857634e487b7160e01b600052602260045260246000fd5b50919050565b634e487b7160e01b600052604160045260246000fd5b601f82111561071857600081815260208120601f850160051c81016020861015611d9b5750805b601f850160051c820191505b81811015611dba57828155600101611da7565b505050505050565b67ffffffffffffffff831115611dda57611dda611d5e565b611dee83611de88354611d24565b83611d74565b6000601f841160018114611e225760008515611e0a5750838201355b600019600387901b1c1916600186901b178355611e7c565b600083815260209020601f19861690835b82811015611e535786850135825560209485019460019092019101611e33565b5086821015611e705760001960f88860031b161c19848701351681555b505060018560011b0183555b5050505050565b634e487b7160e01b600052601160045260246000fd5b600060018201611eab57611eab611e83565b5060010190565b6000808354611ec081611d24565b60018281168015611ed85760018114611eed57611f1c565b60ff1984168752821515830287019450611f1c565b8760005260208060002060005b85811015611f135781548a820152908401908201611efa565b50505082870194505b50929695505050505050565b6020808252600d908201526c496e76616c69642072616e676560981b604082015260600190565b60208082526017908201527f456e6420696e646578206f7574206f6620626f756e6473000000000000000000604082015260600190565b81810381811115610b2457610b24611e83565b80820180821115610b2457610b24611e83565b634e487b7160e01b600052603260045260246000fd5b815167ffffffffffffffff811115611fdc57611fdc611d5e565b611ff081611fea8454611d24565b84611d74565b602080601f831160018114612025576000841561200d5750858301515b600019600386901b1c1916600185901b178555611dba565b600085815260208120601f198616915b8281101561205457888601518255948401946001909101908401612035565b50858210156120725787850151600019600388901b60f8161c191681555b5050505050600190811b0190555056fea2646970667358221220c4a7463308674ce8ff836272bb4cf856b41fa93829a489d48c357a41f29d51a164736f6c63430008140033",
  "devdoc": {
    "details": "Uses ReentrancyGuard to prevent reentrancy attacks and Pausable for emergency stops",
    "errors": {
      "EnforcedPause()": [
        {
          "details": "The operation failed because the contract is paused."
        }
      ],
      "ExpectedPause()": [
        {
          "details": "The operation failed because the contract is not paused."
        }
      ],
      "OwnableInvalidOwner(address)": [
        {
          "details": "The owner is not a valid owner account. (eg. `address(0)`)"
        }
      ],
      "OwnableUnauthorizedAccount(address)": [
        {
          "details": "The caller account is not authorized to perform an operation."
        }
      ],
      "ReentrancyGuardReentrantCall()": [
        {
          "details": "Unauthorized reentrant call."
        }
      ],
      "SafeERC20FailedOperation(address)": [
        {
          "details": "An operation with an ERC-20 token failed."
        }
      ]
    },
    "events": {
      "Paused(address)": {
        "details": "Emitted when the pause is triggered by `account`."
      },
      "Unpaused(address)": {
        "details": "Emitted when the pause is lifted by `account`."
      }
    },
    "kind": "dev",
    "methods": {
      "createCampaign(uint256,uint256,uint256,address,bytes,address,address)": {
        "params": {
          "endDate": "Campaign end date (0 for no end date)",
          "maxRewards": "Maximum number of rewards (0 for unlimited)",
          "minBurnAmount": "Minimum tokens required to burn",
          "recipientAddress": "Where tokens go (address(0) means burn)",
          "targetCalldata": "Calldata for external call",
          "targetContract": "Contract to call (address(0) for no call)",
          "tokenAddress": "Token to be spent (address(0) means use rewardToken)"
        }
      },
      "deactivateCampaign(uint256)": {
        "params": {
          "campaignId": "ID of the campaign to deactivate"
        }
      },
      "getActiveCampaigns(uint256,uint256)": {
        "params": {
          "endIndex": "End index in the campaigns array (exclusive)",
          "startIndex": "Start index in the campaigns array"
        },
        "returns": {
          "campaignIds": "Array of campaign IDs that are active",
          "details": "Array of campaign details corresponding to the IDs"
        }
      },
      "getCampaign(uint256)": {
        "params": {
          "campaignId": "Campaign ID to query"
        }
      },
      "getCampaignIds(uint256,uint256)": {
        "params": {
          "endIndex": "End index in the campaigns array (exclusive)",
          "startIndex": "Start index in the campaigns array"
        },
        "returns": {
          "_0": "Array of campaign IDs"
        }
      },
      "getInactiveCampaigns(uint256,uint256)": {
        "params": {
          "endIndex": "End index in the campaigns array (exclusive)",
          "startIndex": "Start index in the campaigns array"
        },
        "returns": {
          "campaignIds": "Array of campaign IDs that are inactive",
          "details": "Array of campaign details corresponding to the IDs"
        }
      },
      "modifyCampaign(uint256,uint256,uint256,uint256,address,bytes,address,address)": {
        "params": {
          "campaignId": "ID of the campaign to modify",
          "endDate": "Campaign end date (0 for no end date)",
          "maxRewards": "Maximum number of rewards (0 for unlimited)",
          "minBurnAmount": "Minimum tokens required to burn",
          "recipientAddress": "Where tokens go (address(0) means burn)",
          "targetCalldata": "Calldata for external call",
          "targetContract": "Contract to call (address(0) for no call)",
          "tokenAddress": "Token to be spent (address(0) means use rewardToken)"
        }
      },
      "owner()": {
        "details": "Returns the address of the current owner."
      },
      "paused()": {
        "details": "Returns true if the contract is paused, and false otherwise."
      },
      "recoverTokens(address,address,uint256)": {
        "details": "Allows the owner to recover any ERC20 tokens mistakenly sent to the contract.",
        "params": {
          "amount": "The amount of tokens to recover.",
          "to": "The address to send the recovered tokens to.",
          "token": "The address of the ERC20 token to recover."
        }
      },
      "renounceOwnership()": {
        "details": "Leaves the contract without owner. It will not be possible to call `onlyOwner` functions. Can only be called by the current owner. NOTE: Renouncing ownership will leave the contract without an owner, thereby disabling any functionality that is only available to the owner."
      },
      "transferOwnership(address)": {
        "details": "Transfers ownership of the contract to a new account (`newOwner`). Can only be called by the current owner."
      },
      "triggerReward(uint256,uint256)": {
        "params": {
          "burnAmount": "Amount of tokens to burn",
          "campaignId": "ID of the campaign"
        }
      }
    },
    "title": "RewardsMarket",
    "version": 1
  },
  "userdoc": {
    "kind": "user",
    "methods": {
      "createCampaign(uint256,uint256,uint256,address,bytes,address,address)": {
        "notice": "Creates a new reward campaign"
      },
      "deactivateCampaign(uint256)": {
        "notice": "Deactivates a campaign"
      },
      "getActiveCampaigns(uint256,uint256)": {
        "notice": "Returns all active campaigns within the specified range"
      },
      "getCampaign(uint256)": {
        "notice": "Returns campaign details"
      },
      "getCampaignIds(uint256,uint256)": {
        "notice": "Returns an array of campaign IDs within the specified range"
      },
      "getInactiveCampaigns(uint256,uint256)": {
        "notice": "Returns all inactive campaigns within the specified range"
      },
      "getTotalCampaigns()": {
        "notice": "Returns total number of campaigns ever created"
      },
      "getUserParticipationCount(address,uint256)": {
        "notice": "Returns number of times a user has participated in a campaign"
      },
      "modifyCampaign(uint256,uint256,uint256,uint256,address,bytes,address,address)": {
        "notice": "Modifies an existing campaign"
      },
      "pause()": {
        "notice": "Emergency pause"
      },
      "recoverTokens(address,address,uint256)": {
        "notice": "Only callable by the contract owner."
      },
      "triggerReward(uint256,uint256)": {
        "notice": "Triggers a reward by burning tokens"
      },
      "unpause()": {
        "notice": "Unpause the contract"
      }
    },
    "notice": "Manages reward campaigns where users can burn tokens to trigger rewards",
    "version": 1
  },
  "storageLayout": {
    "storage": [
      {
        "astId": 8,
        "contract": "contracts/RewardsMarket.sol:RewardsMarket",
        "label": "_owner",
        "offset": 0,
        "slot": "0",
        "type": "t_address"
      },
      {
        "astId": 1843,
        "contract": "contracts/RewardsMarket.sol:RewardsMarket",
        "label": "_status",
        "offset": 0,
        "slot": "1",
        "type": "t_uint256"
      },
      {
        "astId": 1724,
        "contract": "contracts/RewardsMarket.sol:RewardsMarket",
        "label": "_paused",
        "offset": 0,
        "slot": "2",
        "type": "t_bool"
      },
      {
        "astId": 2098,
        "contract": "contracts/RewardsMarket.sol:RewardsMarket",
        "label": "campaigns",
        "offset": 0,
        "slot": "3",
        "type": "t_mapping(t_uint256,t_struct(Campaign)2090_storage)"
      },
      {
        "astId": 2100,
        "contract": "contracts/RewardsMarket.sol:RewardsMarket",
        "label": "nextCampaignId",
        "offset": 0,
        "slot": "4",
        "type": "t_uint256"
      },
      {
        "astId": 2106,
        "contract": "contracts/RewardsMarket.sol:RewardsMarket",
        "label": "userParticipation",
        "offset": 0,
        "slot": "5",
        "type": "t_mapping(t_address,t_mapping(t_uint256,t_uint256))"
      },
      {
        "astId": 2109,
        "contract": "contracts/RewardsMarket.sol:RewardsMarket",
        "label": "allCampaignIds",
        "offset": 0,
        "slot": "6",
        "type": "t_array(t_uint256)dyn_storage"
      },
      {
        "astId": 2113,
        "contract": "contracts/RewardsMarket.sol:RewardsMarket",
        "label": "campaignIdToArrayIndex",
        "offset": 0,
        "slot": "7",
        "type": "t_mapping(t_uint256,t_uint256)"
      }
    ],
    "types": {
      "t_address": {
        "encoding": "inplace",
        "label": "address",
        "numberOfBytes": "20"
      },
      "t_array(t_uint256)dyn_storage": {
        "base": "t_uint256",
        "encoding": "dynamic_array",
        "label": "uint256[]",
        "numberOfBytes": "32"
      },
      "t_bool": {
        "encoding": "inplace",
        "label": "bool",
        "numberOfBytes": "1"
      },
      "t_bytes_storage": {
        "encoding": "bytes",
        "label": "bytes",
        "numberOfBytes": "32"
      },
      "t_mapping(t_address,t_mapping(t_uint256,t_uint256))": {
        "encoding": "mapping",
        "key": "t_address",
        "label": "mapping(address => mapping(uint256 => uint256))",
        "numberOfBytes": "32",
        "value": "t_mapping(t_uint256,t_uint256)"
      },
      "t_mapping(t_uint256,t_struct(Campaign)2090_storage)": {
        "encoding": "mapping",
        "key": "t_uint256",
        "label": "mapping(uint256 => struct RewardsMarket.Campaign)",
        "numberOfBytes": "32",
        "value": "t_struct(Campaign)2090_storage"
      },
      "t_mapping(t_uint256,t_uint256)": {
        "encoding": "mapping",
        "key": "t_uint256",
        "label": "mapping(uint256 => uint256)",
        "numberOfBytes": "32",
        "value": "t_uint256"
      },
      "t_struct(Campaign)2090_storage": {
        "encoding": "inplace",
        "label": "struct RewardsMarket.Campaign",
        "members": [
          {
            "astId": 2071,
            "contract": "contracts/RewardsMarket.sol:RewardsMarket",
            "label": "minBurnAmount",
            "offset": 0,
            "slot": "0",
            "type": "t_uint256"
          },
          {
            "astId": 2073,
            "contract": "contracts/RewardsMarket.sol:RewardsMarket",
            "label": "endDate",
            "offset": 0,
            "slot": "1",
            "type": "t_uint256"
          },
          {
            "astId": 2075,
            "contract": "contracts/RewardsMarket.sol:RewardsMarket",
            "label": "maxRewards",
            "offset": 0,
            "slot": "2",
            "type": "t_uint256"
          },
          {
            "astId": 2077,
            "contract": "contracts/RewardsMarket.sol:RewardsMarket",
            "label": "rewardsIssued",
            "offset": 0,
            "slot": "3",
            "type": "t_uint256"
          },
          {
            "astId": 2079,
            "contract": "contracts/RewardsMarket.sol:RewardsMarket",
            "label": "targetContract",
            "offset": 0,
            "slot": "4",
            "type": "t_address"
          },
          {
            "astId": 2081,
            "contract": "contracts/RewardsMarket.sol:RewardsMarket",
            "label": "targetCalldata",
            "offset": 0,
            "slot": "5",
            "type": "t_bytes_storage"
          },
          {
            "astId": 2083,
            "contract": "contracts/RewardsMarket.sol:RewardsMarket",
            "label": "isActive",
            "offset": 0,
            "slot": "6",
            "type": "t_bool"
          },
          {
            "astId": 2085,
            "contract": "contracts/RewardsMarket.sol:RewardsMarket",
            "label": "createdAt",
            "offset": 0,
            "slot": "7",
            "type": "t_uint256"
          },
          {
            "astId": 2087,
            "contract": "contracts/RewardsMarket.sol:RewardsMarket",
            "label": "tokenAddress",
            "offset": 0,
            "slot": "8",
            "type": "t_address"
          },
          {
            "astId": 2089,
            "contract": "contracts/RewardsMarket.sol:RewardsMarket",
            "label": "recipientAddress",
            "offset": 0,
            "slot": "9",
            "type": "t_address"
          }
        ],
        "numberOfBytes": "320"
      },
      "t_uint256": {
        "encoding": "inplace",
        "label": "uint256",
        "numberOfBytes": "32"
      }
    }
  }
}