{
  "address": "0xbcf0eb5f05Daf3faa684799f00f8fab32c50841f",
  "abi": [
    {
      "inputs": [
        {
          "internalType": "address",
          "name": "_rewardToken",
          "type": "address"
        }
      ],
      "stateMutability": "nonpayable",
      "type": "constructor"
    },
    {
      "inputs": [],
      "name": "EnforcedPause",
      "type": "error"
    },
    {
      "inputs": [],
      "name": "ExpectedPause",
      "type": "error"
    },
    {
      "inputs": [
        {
          "internalType": "address",
          "name": "owner",
          "type": "address"
        }
      ],
      "name": "OwnableInvalidOwner",
      "type": "error"
    },
    {
      "inputs": [
        {
          "internalType": "address",
          "name": "account",
          "type": "address"
        }
      ],
      "name": "OwnableUnauthorizedAccount",
      "type": "error"
    },
    {
      "inputs": [],
      "name": "ReentrancyGuardReentrantCall",
      "type": "error"
    },
    {
      "inputs": [
        {
          "internalType": "address",
          "name": "token",
          "type": "address"
        }
      ],
      "name": "SafeERC20FailedOperation",
      "type": "error"
    },
    {
      "anonymous": false,
      "inputs": [
        {
          "indexed": true,
          "internalType": "address",
          "name": "user",
          "type": "address"
        },
        {
          "indexed": true,
          "internalType": "uint256",
          "name": "lockId",
          "type": "uint256"
        },
        {
          "indexed": false,
          "internalType": "uint256",
          "name": "amount",
          "type": "uint256"
        },
        {
          "indexed": false,
          "internalType": "uint256",
          "name": "lockPeriod",
          "type": "uint256"
        },
        {
          "indexed": false,
          "internalType": "uint256",
          "name": "unlockTime",
          "type": "uint256"
        },
        {
          "indexed": false,
          "internalType": "uint256",
          "name": "poolId",
          "type": "uint256"
        }
      ],
      "name": "Locked",
      "type": "event"
    },
    {
      "anonymous": false,
      "inputs": [
        {
          "indexed": true,
          "internalType": "address",
          "name": "previousOwner",
          "type": "address"
        },
        {
          "indexed": true,
          "internalType": "address",
          "name": "newOwner",
          "type": "address"
        }
      ],
      "name": "OwnershipTransferred",
      "type": "event"
    },
    {
      "anonymous": false,
      "inputs": [
        {
          "indexed": false,
          "internalType": "address",
          "name": "account",
          "type": "address"
        }
      ],
      "name": "Paused",
      "type": "event"
    },
    {
      "anonymous": false,
      "inputs": [
        {
          "indexed": true,
          "internalType": "uint256",
          "name": "poolId",
          "type": "uint256"
        },
        {
          "indexed": true,
          "internalType": "address",
          "name": "stakingToken",
          "type": "address"
        }
      ],
      "name": "PoolAdded",
      "type": "event"
    },
    {
      "anonymous": false,
      "inputs": [
        {
          "indexed": true,
          "internalType": "uint256",
          "name": "poolId",
          "type": "uint256"
        },
        {
          "indexed": false,
          "internalType": "bool",
          "name": "isActive",
          "type": "bool"
        }
      ],
      "name": "PoolStatusUpdated",
      "type": "event"
    },
    {
      "anonymous": false,
      "inputs": [
        {
          "indexed": true,
          "internalType": "uint256",
          "name": "poolId",
          "type": "uint256"
        },
        {
          "indexed": false,
          "internalType": "uint256[]",
          "name": "newRewardRates",
          "type": "uint256[]"
        }
      ],
      "name": "RewardRatesUpdated",
      "type": "event"
    },
    {
      "anonymous": false,
      "inputs": [
        {
          "indexed": true,
          "internalType": "address",
          "name": "user",
          "type": "address"
        },
        {
          "indexed": true,
          "internalType": "uint256",
          "name": "poolId",
          "type": "uint256"
        },
        {
          "indexed": false,
          "internalType": "uint256",
          "name": "amount",
          "type": "uint256"
        }
      ],
      "name": "RewardsClaimed",
      "type": "event"
    },
    {
      "anonymous": false,
      "inputs": [
        {
          "indexed": true,
          "internalType": "address",
          "name": "user",
          "type": "address"
        },
        {
          "indexed": true,
          "internalType": "uint256",
          "name": "poolId",
          "type": "uint256"
        },
        {
          "indexed": false,
          "internalType": "uint256",
          "name": "amount",
          "type": "uint256"
        },
        {
          "indexed": false,
          "internalType": "uint256",
          "name": "lockPeriod",
          "type": "uint256"
        }
      ],
      "name": "Staked",
      "type": "event"
    },
    {
      "anonymous": false,
      "inputs": [
        {
          "indexed": true,
          "internalType": "address",
          "name": "user",
          "type": "address"
        },
        {
          "indexed": true,
          "internalType": "uint256",
          "name": "lockId",
          "type": "uint256"
        },
        {
          "indexed": false,
          "internalType": "uint256",
          "name": "amount",
          "type": "uint256"
        },
        {
          "indexed": false,
          "internalType": "uint256",
          "name": "poolId",
          "type": "uint256"
        }
      ],
      "name": "Unlocked",
      "type": "event"
    },
    {
      "anonymous": false,
      "inputs": [
        {
          "indexed": false,
          "internalType": "address",
          "name": "account",
          "type": "address"
        }
      ],
      "name": "Unpaused",
      "type": "event"
    },
    {
      "anonymous": false,
      "inputs": [
        {
          "indexed": true,
          "internalType": "address",
          "name": "user",
          "type": "address"
        },
        {
          "indexed": true,
          "internalType": "uint256",
          "name": "poolId",
          "type": "uint256"
        },
        {
          "indexed": false,
          "internalType": "uint256",
          "name": "amount",
          "type": "uint256"
        },
        {
          "indexed": false,
          "internalType": "uint256",
          "name": "reward",
          "type": "uint256"
        }
      ],
      "name": "Unstaked",
      "type": "event"
    },
    {
      "inputs": [
        {
          "internalType": "contract IERC20",
          "name": "_stakingToken",
          "type": "address"
        },
        {
          "internalType": "uint256[]",
          "name": "_lockPeriods",
          "type": "uint256[]"
        },
        {
          "internalType": "uint256[]",
          "name": "_rewardRates",
          "type": "uint256[]"
        }
      ],
      "name": "addPool",
      "outputs": [],
      "stateMutability": "nonpayable",
      "type": "function"
    },
    {
      "inputs": [
        {
          "internalType": "address",
          "name": "user",
          "type": "address"
        },
        {
          "internalType": "uint256",
          "name": "lockId",
          "type": "uint256"
        }
      ],
      "name": "calculateRewards",
      "outputs": [
        {
          "internalType": "uint256",
          "name": "",
          "type": "uint256"
        }
      ],
      "stateMutability": "view",
      "type": "function"
    },
    {
      "inputs": [
        {
          "internalType": "uint256",
          "name": "poolId",
          "type": "uint256"
        },
        {
          "internalType": "uint256",
          "name": "lockId",
          "type": "uint256"
        }
      ],
      "name": "claimRewards",
      "outputs": [],
      "stateMutability": "nonpayable",
      "type": "function"
    },
    {
      "inputs": [],
      "name": "emergencyUnlockAll",
      "outputs": [],
      "stateMutability": "nonpayable",
      "type": "function"
    },
    {
      "inputs": [
        {
          "internalType": "address",
          "name": "user",
          "type": "address"
        }
      ],
      "name": "getLifetimeRewards",
      "outputs": [
        {
          "internalType": "uint256",
          "name": "",
          "type": "uint256"
        }
      ],
      "stateMutability": "view",
      "type": "function"
    },
    {
      "inputs": [],
      "name": "getTotalLockedUsers",
      "outputs": [
        {
          "internalType": "uint256",
          "name": "",
          "type": "uint256"
        }
      ],
      "stateMutability": "view",
      "type": "function"
    },
    {
      "inputs": [],
      "name": "getTotalStakedAmount",
      "outputs": [
        {
          "internalType": "uint256",
          "name": "",
          "type": "uint256"
        }
      ],
      "stateMutability": "view",
      "type": "function"
    },
    {
      "inputs": [
        {
          "internalType": "address",
          "name": "user",
          "type": "address"
        }
      ],
      "name": "getUserLocks",
      "outputs": [
        {
          "components": [
            {
              "internalType": "uint256",
              "name": "lockId",
              "type": "uint256"
            },
            {
              "internalType": "uint256",
              "name": "amount",
              "type": "uint256"
            },
            {
              "internalType": "uint256",
              "name": "lockPeriod",
              "type": "uint256"
            },
            {
              "internalType": "uint256",
              "name": "unlockTime",
              "type": "uint256"
            },
            {
              "internalType": "uint256",
              "name": "lastClaimTime",
              "type": "uint256"
            },
            {
              "internalType": "uint256",
              "name": "poolId",
              "type": "uint256"
            },
            {
              "internalType": "bool",
              "name": "isLocked",
              "type": "bool"
            }
          ],
          "internalType": "struct StakingVault.LockInfo[]",
          "name": "",
          "type": "tuple[]"
        }
      ],
      "stateMutability": "view",
      "type": "function"
    },
    {
      "inputs": [
        {
          "internalType": "address",
          "name": "",
          "type": "address"
        }
      ],
      "name": "lifetimeRewards",
      "outputs": [
        {
          "internalType": "uint256",
          "name": "",
          "type": "uint256"
        }
      ],
      "stateMutability": "view",
      "type": "function"
    },
    {
      "inputs": [
        {
          "internalType": "uint256",
          "name": "",
          "type": "uint256"
        }
      ],
      "name": "lockedUsers",
      "outputs": [
        {
          "internalType": "address",
          "name": "",
          "type": "address"
        }
      ],
      "stateMutability": "view",
      "type": "function"
    },
    {
      "inputs": [],
      "name": "owner",
      "outputs": [
        {
          "internalType": "address",
          "name": "",
          "type": "address"
        }
      ],
      "stateMutability": "view",
      "type": "function"
    },
    {
      "inputs": [],
      "name": "pause",
      "outputs": [],
      "stateMutability": "nonpayable",
      "type": "function"
    },
    {
      "inputs": [],
      "name": "paused",
      "outputs": [
        {
          "internalType": "bool",
          "name": "",
          "type": "bool"
        }
      ],
      "stateMutability": "view",
      "type": "function"
    },
    {
      "inputs": [
        {
          "internalType": "uint256",
          "name": "",
          "type": "uint256"
        }
      ],
      "name": "pools",
      "outputs": [
        {
          "internalType": "uint256",
          "name": "poolId",
          "type": "uint256"
        },
        {
          "internalType": "contract IERC20",
          "name": "stakingToken",
          "type": "address"
        },
        {
          "internalType": "bool",
          "name": "isActive",
          "type": "bool"
        }
      ],
      "stateMutability": "view",
      "type": "function"
    },
    {
      "inputs": [
        {
          "internalType": "contract IERC20",
          "name": "token",
          "type": "address"
        },
        {
          "internalType": "address",
          "name": "to",
          "type": "address"
        },
        {
          "internalType": "uint256",
          "name": "amount",
          "type": "uint256"
        }
      ],
      "name": "recoverTokens",
      "outputs": [],
      "stateMutability": "nonpayable",
      "type": "function"
    },
    {
      "inputs": [],
      "name": "renounceOwnership",
      "outputs": [],
      "stateMutability": "nonpayable",
      "type": "function"
    },
    {
      "inputs": [],
      "name": "rewardToken",
      "outputs": [
        {
          "internalType": "contract RewardToken",
          "name": "",
          "type": "address"
        }
      ],
      "stateMutability": "view",
      "type": "function"
    },
    {
      "inputs": [
        {
          "internalType": "uint256",
          "name": "poolId",
          "type": "uint256"
        },
        {
          "internalType": "bool",
          "name": "isActive",
          "type": "bool"
        }
      ],
      "name": "setPoolStatus",
      "outputs": [],
      "stateMutability": "nonpayable",
      "type": "function"
    },
    {
      "inputs": [
        {
          "internalType": "address",
          "name": "_rewardToken",
          "type": "address"
        }
      ],
      "name": "setRewardToken",
      "outputs": [],
      "stateMutability": "nonpayable",
      "type": "function"
    },
    {
      "inputs": [
        {
          "internalType": "uint256",
          "name": "poolId",
          "type": "uint256"
        },
        {
          "internalType": "uint256",
          "name": "_amount",
          "type": "uint256"
        },
        {
          "internalType": "uint256",
          "name": "_lockPeriod",
          "type": "uint256"
        }
      ],
      "name": "stake",
      "outputs": [],
      "stateMutability": "nonpayable",
      "type": "function"
    },
    {
      "inputs": [
        {
          "internalType": "address",
          "name": "newOwner",
          "type": "address"
        }
      ],
      "name": "transferOwnership",
      "outputs": [],
      "stateMutability": "nonpayable",
      "type": "function"
    },
    {
      "inputs": [],
      "name": "unpause",
      "outputs": [],
      "stateMutability": "nonpayable",
      "type": "function"
    },
    {
      "inputs": [
        {
          "internalType": "uint256",
          "name": "poolId",
          "type": "uint256"
        },
        {
          "internalType": "uint256",
          "name": "lockId",
          "type": "uint256"
        }
      ],
      "name": "unstake",
      "outputs": [],
      "stateMutability": "nonpayable",
      "type": "function"
    },
    {
      "inputs": [
        {
          "internalType": "uint256",
          "name": "poolId",
          "type": "uint256"
        },
        {
          "internalType": "uint256[]",
          "name": "newRewardRates",
          "type": "uint256[]"
        }
      ],
      "name": "updateRewardRates",
      "outputs": [],
      "stateMutability": "nonpayable",
      "type": "function"
    },
    {
      "inputs": [
        {
          "internalType": "address",
          "name": "",
          "type": "address"
        },
        {
          "internalType": "uint256",
          "name": "",
          "type": "uint256"
        }
      ],
      "name": "userLocks",
      "outputs": [
        {
          "internalType": "uint256",
          "name": "lockId",
          "type": "uint256"
        },
        {
          "internalType": "uint256",
          "name": "amount",
          "type": "uint256"
        },
        {
          "internalType": "uint256",
          "name": "lockPeriod",
          "type": "uint256"
        },
        {
          "internalType": "uint256",
          "name": "unlockTime",
          "type": "uint256"
        },
        {
          "internalType": "uint256",
          "name": "lastClaimTime",
          "type": "uint256"
        },
        {
          "internalType": "uint256",
          "name": "poolId",
          "type": "uint256"
        },
        {
          "internalType": "bool",
          "name": "isLocked",
          "type": "bool"
        }
      ],
      "stateMutability": "view",
      "type": "function"
    }
  ],
  "transactionHash": "0x742c09dbc44bd16a56b62e4e8b63e6cb56b5b558cdbe8c7a846fe1b2d7e9a65a",
  "args": [
    "0xe3eb5F9A5119F6d2f298031Ba31F3C59c26Be4B2"
  ],
  "numDeployments": 1,
  "solcInputHash": "dd67f20c669b52343b3c237a38210e98",
  "bytecode": "0x60806040523480156200001157600080fd5b5060405162002523380380620025238339810160408190526200003491620000eb565b33806200005b57604051631e4fbdf760e01b81526000600482015260240160405180910390fd5b62000066816200009b565b50600180556002805460ff19169055600480546001600160a01b0319166001600160a01b03929092169190911790556200011d565b600080546001600160a01b038381166001600160a01b0319831681178455604051919092169283917f8be0079c531659141344cd1fd0a4f28419497f9722a3daafe3b4186f6b6457e09190a35050565b600060208284031215620000fe57600080fd5b81516001600160a01b03811681146200011657600080fd5b9392505050565b6123f6806200012d6000396000f3fe608060405234801561001057600080fd5b50600436106101735760003560e01c80638da5cb5b116100de578063b7d6687111610097578063e20cc07911610071578063e20cc07914610386578063efea2d5c1461038e578063f2fde38b146103a1578063f7c618c1146103b457600080fd5b8063b7d668711461034d578063bbcaf3fe14610360578063beb8314c1461037357600080fd5b80638da5cb5b1461026d5780639361983c146102925780639e2c8a5b146102a5578063a638f2e2146102b8578063aa33fedb146102cb578063ac4afa381461031557600080fd5b80635c975abb116101305780635c975abb146101f85780635f3e849f1461020e578063715018a6146102215780637d3f0e7d146102295780638456cb59146102525780638aee81271461025a57600080fd5b80631d336d621461017857806323a35de9146101ab57806338adb6f0146101cb5780633f4ba83a146101d357806348398454146101dd578063594dd432146101e5575b600080fd5b610198610186366004611f17565b60066020526000908152604090205481565b6040519081526020015b60405180910390f35b6101be6101b9366004611f17565b6103c7565b6040516101a29190611f3b565b610198610481565b6101db6105ef565b005b600754610198565b6101db6101f3366004611fbf565b610601565b60025460ff1660405190151581526020016101a2565b6101db61021c366004611fe1565b6107bc565b6101db610833565b610198610237366004611f17565b6001600160a01b031660009081526006602052604090205490565b6101db610845565b6101db610268366004611f17565b610855565b6000546001600160a01b03165b6040516001600160a01b0390911681526020016101a2565b6101db6102a0366004612038565b61087f565b6101db6102b3366004611fbf565b6109ae565b6101db6102c6366004612102565b610ca4565b6102de6102d936600461212e565b610eda565b604080519788526020880196909652948601939093526060850191909152608084015260a0830152151560c082015260e0016101a2565b61032861032336600461215a565b610f37565b604080519384526001600160a01b0390921660208401521515908201526060016101a2565b61027a61035b36600461215a565b610f79565b6101db61036e366004612173565b610fa3565b61019861038136600461212e565b61106e565b6101db6111ef565b6101db61039c3660046121ed565b611364565b6101db6103af366004611f17565b61158b565b60045461027a906001600160a01b031681565b6001600160a01b0381166000908152600560209081526040808320805482518185028101850190935280835260609492939192909184015b828210156104765760008481526020908190206040805160e0810182526007860290920180548352600180820154848601526002820154928401929092526003810154606084015260048101546080840152600581015460a08401526006015460ff16151560c083015290835290920191016103ff565b505050509050919050565b600080805b6007548110156105e957600060056000600784815481106104a9576104a9612270565b60009182526020808320909101546001600160a01b031683528281019390935260409182018120805483518186028101860190945280845292939092919084015b828210156105615760008481526020908190206040805160e0810182526007860290920180548352600180820154848601526002820154928401929092526003810154606084015260048101546080840152600581015460a08401526006015460ff16151560c083015290835290920191016104ea565b50505050905060005b81518110156105d45781818151811061058557610585612270565b602002602001015160c00151156105c2578181815181106105a8576105a8612270565b602002602001015160200151846105bf919061229c565b93505b806105cc816122af565b91505061056a565b505080806105e1906122af565b915050610486565b50919050565b6105f76115c6565b6105ff6115f3565b565b600354821061062b5760405162461bcd60e51b8152600401610622906122c8565b60405180910390fd5b3360009081526005602052604090205481106106595760405162461bcd60e51b8152600401610622906122f1565b6000610665338361106e565b9050600081116106ae5760405162461bcd60e51b81526020600482015260146024820152734e6f207265776172647320617661696c61626c6560601b6044820152606401610622565b600480546040516340c10f1960e01b81523392810192909252602482018390526001600160a01b0316906340c10f1990604401600060405180830381600087803b1580156106fb57600080fd5b505af115801561070f573d6000803e3d6000fd5b5050336000908152600660205260408120805485945090925061073390849061229c565b909155505033600090815260056020526040812080548490811061075957610759612270565b9060005260206000209060070201905042816004018190555083336001600160a01b03167fdacbdde355ba930696a362ea6738feb9f8bd52dfb3d81947558fd3217e23e325846040516107ae91815260200190565b60405180910390a350505050565b6107c46115c6565b6001600160a01b03821661081a5760405162461bcd60e51b815260206004820152601e60248201527f43616e6e6f74207265636f76657220746f207a65726f206164647265737300006044820152606401610622565b61082e6001600160a01b0384168383611645565b505050565b61083b6115c6565b6105ff60006116a4565b61084d6115c6565b6105ff6116f4565b61085d6115c6565b600480546001600160a01b0319166001600160a01b0392909216919091179055565b6108876115c6565b60035482106108ce5760405162461bcd60e51b8152602060048201526013602482015272141bdbdb08191bd95cc81b9bdd08195e1a5cdd606a1b6044820152606401610622565b6000600383815481106108e3576108e3612270565b90600052602060002090600502019050815181600201805490501461095b5760405162461bcd60e51b815260206004820152602860248201527f4d69736d617463686564206c6f636b20706572696f647320616e642072657761604482015267726420726174657360c01b6064820152608401610622565b81516109709060038301906020850190611ea2565b50827fbda750cbf366482de2e4f9ae114a7cd7cf47576f6ddb09118dd445466d413927836040516109a1919061231a565b60405180910390a2505050565b60035482106109cf5760405162461bcd60e51b8152600401610622906122c8565b3360009081526005602052604090205481106109fd5760405162461bcd60e51b8152600401610622906122f1565b600060038381548110610a1257610a12612270565b60009182526020918290206040805160a08101825260059093029091018054835260018101546001600160a01b0316838501526002810180548351818702810187018552818152949592949386019392830182828015610a9157602002820191906000526020600020905b815481526020019060010190808311610a7d575b5050505050815260200160038201805480602002602001604051908101604052809291908181526020018280548015610ae957602002820191906000526020600020905b815481526020019060010190808311610ad5575b50505091835250506004919091015460ff16151560209091015290506000610b11338461106e565b9050600080610b203386611731565b915091508015610b725760405162461bcd60e51b815260206004820152601860248201527f4c6f636b20706572696f64206e6f7420796574206f76657200000000000000006044820152606401610622565b600480546040516340c10f1960e01b81523392810192909252602482018590526001600160a01b0316906340c10f1990604401600060405180830381600087803b158015610bbf57600080fd5b505af1158015610bd3573d6000803e3d6000fd5b5050506020850151610bf091506001600160a01b03163384611645565b3360009081526006602052604081208054859290610c0f90849061229c565b9091555050336000908152600560205260408120805487908110610c3557610c35612270565b9060005260206000209060070201905042816004018190555086336001600160a01b03167f204fccf0d92ed8d48f204adb39b2e81e92bad0dedb93f5716ca9478cfb57de008587604051610c93929190918252602082015260400190565b60405180910390a350505050505050565b610cac611a2a565b6003548310610ccd5760405162461bcd60e51b8152600401610622906122c8565b600060038481548110610ce257610ce2612270565b60009182526020918290206040805160a08101825260059093029091018054835260018101546001600160a01b0316838501526002810180548351818702810187018552818152949592949386019392830182828015610d6157602002820191906000526020600020905b815481526020019060010190808311610d4d575b5050505050815260200160038201805480602002602001604051908101604052809291908181526020018280548015610db957602002820191906000526020600020905b815481526020019060010190808311610da5575b50505091835250506004919091015460ff1615156020909101526080810151909150610e1c5760405162461bcd60e51b8152602060048201526012602482015271506f6f6c206973206e6f742061637469766560701b6044820152606401610622565b6000610e288584611a4e565b905060008111610e705760405162461bcd60e51b8152602060048201526013602482015272125b9d985b1a59081b1bd8dac81c195c9a5bd9606a1b6044820152606401610622565b6020820151610e8a906001600160a01b0316333087611aef565b610e9633868686611b2e565b6040805185815260208101859052869133917fb4caaf29adda3eefee3ad552a8e85058589bf834c7466cae4ee58787f70589ed910160405180910390a35050505050565b60056020528160005260406000208181548110610ef657600080fd5b600091825260209091206007909102018054600182015460028301546003840154600485015460058601546006909601549497509295509093909260ff1687565b60038181548110610f4757600080fd5b60009182526020909120600590910201805460018201546004909201549092506001600160a01b039091169060ff1683565b60078181548110610f8957600080fd5b6000918252602090912001546001600160a01b0316905081565b610fab6115c6565b6003548210610ff25760405162461bcd60e51b8152602060048201526013602482015272141bdbdb08191bd95cc81b9bdd08195e1a5cdd606a1b6044820152606401610622565b806003838154811061100657611006612270565b906000526020600020906005020160040160006101000a81548160ff021916908315150217905550817f42e14968ae1060172ac61821229b29fcbdb6c4ea07455d1610d026cff117b63e82604051611062911515815260200190565b60405180910390a25050565b6001600160a01b03821660009081526005602052604081208054829142918391908690811061109f5761109f612270565b600091825260208083206040805160e08101825260079094029091018054845260018101549284019290925260028201549083018190526003820154606084015260048201546080840152600582015460a0840181905260069092015460ff16151560c084015291935061111291611a4e565b90506000811161115b5760405162461bcd60e51b815260206004820152601460248201527324b73b30b634b2103637b1b5903832b934b7b21760611b6044820152606401610622565b8160c00151156111e25760008083608001511161118b5782604001518360600151611186919061235e565b611191565b82608001515b61119b908561235e565b905082604001516127106111af9190612371565b818385602001516111c09190612371565b6111ca9190612371565b6111d49190612388565b6111de908661229c565b9450505b5091925050505b92915050565b6111f76115c6565b60005b6007548110156113615760005b600560006007848154811061121e5761121e612270565b60009182526020808320909101546001600160a01b0316835282019290925260400190205481101561134e576000600560006007858154811061126357611263612270565b60009182526020808320909101546001600160a01b03168352820192909252604001902080548390811061129957611299612270565b60009182526020909120600790910201600681015490915060ff161561133b5760068101805460ff19169055426003820155805460078054859081106112e1576112e1612270565b600091825260209182902001546001840154600585015460408051928352938201526001600160a01b03909116917f5245d528087a96a64f4589a764f00061e4671eab90cb1e019b1a5b24b2e4c2a8910160405180910390a35b5080611346816122af565b915050611207565b5080611359816122af565b9150506111fa565b50565b61136c6115c6565b6001600160a01b0385166113c25760405162461bcd60e51b815260206004820152601d60248201527f496e76616c6964207374616b696e6720746f6b656e20616464726573730000006044820152606401610622565b82811461141b5760405162461bcd60e51b815260206004820152602160248201527f4d69736d617463686564206c6f636b20706572696f647320616e6420726174656044820152607360f81b6064820152608401610622565b6000600380549050905060036040518060a00160405280838152602001886001600160a01b031681526020018787808060200260200160405190810160405280939291908181526020018383602002808284376000920191909152505050908252506040805160208781028281018201909352878252928301929091889188918291850190849080828437600092018290525093855250506001602093840181905285548082018755958352918390208451600590960201948555508282015190840180546001600160a01b0319166001600160a01b03909216919091179055604082015180519293926115159260028501920190611ea2565b5060608201518051611531916003840191602090910190611ea2565b50608091909101516004909101805460ff19169115159190911790556040516001600160a01b0387169082907f1f1f6396247a5ba59b7b1e094ec3a8e439d4dace0c5ac4fe3ecfde3e68e03a8a90600090a3505050505050565b6115936115c6565b6001600160a01b0381166115bd57604051631e4fbdf760e01b815260006004820152602401610622565b611361816116a4565b6000546001600160a01b031633146105ff5760405163118cdaa760e01b8152336004820152602401610622565b6115fb611e0e565b6002805460ff191690557f5db9ee0a495bf2e6ff9c91a7834c1ba4fdd244a5e8aa4e537bd38aeae4b073aa335b6040516001600160a01b03909116815260200160405180910390a1565b6040516001600160a01b0383811660248301526044820183905261082e91859182169063a9059cbb906064015b604051602081830303815290604052915060e01b6020820180516001600160e01b038381831617835250505050611e31565b600080546001600160a01b038381166001600160a01b0319831681178455604051919092169283917f8be0079c531659141344cd1fd0a4f28419497f9722a3daafe3b4186f6b6457e09190a35050565b6116fc611a2a565b6002805460ff191660011790557f62e78cea01bee320cd4e420270b5ea74000d11b0c9f74754ebdbfc544b05a2586116283390565b6000806001600160a01b0384166117815760405162461bcd60e51b8152602060048201526014602482015273496e76616c69642075736572206164647265737360601b6044820152606401610622565b6001600160a01b03841660009081526005602052604090205483106117b85760405162461bcd60e51b8152600401610622906122f1565b6001600160a01b03841660009081526005602052604081208054859081106117e2576117e2612270565b90600052602060002090600702019050806003015442101561183d5760405162461bcd60e51b81526020600482015260146024820152732637b1b5903832b934b7b2103737ba1037bb32b960611b6044820152606401610622565b600681015460ff166118895760405162461bcd60e51b8152602060048201526015602482015274131bd8dac8185b1c9958591e481d5b9b1bd8dad959605a1b6044820152606401610622565b60068101805460ff191690556001600160a01b03851660009081526005602052604081205490036119ba5760005b6007548110156119b857856001600160a01b0316600782815481106118de576118de612270565b6000918252602090912001546001600160a01b0316036119a657600780546119089060019061235e565b8154811061191857611918612270565b600091825260209091200154600780546001600160a01b03909216918390811061194457611944612270565b9060005260206000200160006101000a8154816001600160a01b0302191690836001600160a01b031602179055506007805480611983576119836123aa565b600082815260209020810160001990810180546001600160a01b03191690550190555b806119b0816122af565b9150506118b7565b505b83856001600160a01b03167f5245d528087a96a64f4589a764f00061e4671eab90cb1e019b1a5b24b2e4c2a883600101548460050154604051611a07929190918252602082015260400190565b60405180910390a3600181015460069091015490925060ff1690505b9250929050565b60025460ff16156105ff5760405163d93c066560e01b815260040160405180910390fd5b60008060038481548110611a6457611a64612270565b9060005260206000209060050201905060005b6002820154811015611ae45783826002018281548110611a9957611a99612270565b906000526020600020015403611ad257816003018181548110611abe57611abe612270565b9060005260206000200154925050506111e9565b80611adc816122af565b915050611a77565b506000949350505050565b6040516001600160a01b038481166024830152838116604483015260648201839052611b289186918216906323b872dd90608401611672565b50505050565b6001600160a01b038416611b7b5760405162461bcd60e51b8152602060048201526014602482015273496e76616c69642075736572206164647265737360601b6044820152606401610622565b6003548310611b9c5760405162461bcd60e51b8152600401610622906122c8565b60008211611bec5760405162461bcd60e51b815260206004820181905260248201527f416d6f756e74206d7573742062652067726561746572207468616e207a65726f6044820152606401610622565b60008111611c4a5760405162461bcd60e51b815260206004820152602560248201527f4c6f636b20706572696f64206d7573742062652067726561746572207468616e604482015264207a65726f60d81b6064820152608401610622565b6000611c56824261229c565b6001600160a01b038616600090815260056020526040812054919250819003611cc557600780546001810182556000919091527fa66cc928b5edb82af9bd49922954155ab7b0942694bea4ce44661d9a8736c6880180546001600160a01b0319166001600160a01b0388161790555b60056000876001600160a01b03166001600160a01b031681526020019081526020016000206040518060e0016040528083815260200186815260200185815260200184815260200160008152602001878152602001600115158152509080600181540180825580915050600190039060005260206000209060070201600090919091909150600082015181600001556020820151816001015560408201518160020155606082015181600301556080820151816004015560a0820151816005015560c08201518160060160006101000a81548160ff021916908315150217905550505080866001600160a01b03167fa0b15b5afbd8adc1efc429bc38aa12b0f04d6b9b7ab93f6ec76d54603b4be0ee8686868a604051611dfe949392919093845260208401929092526040830152606082015260800190565b60405180910390a3505050505050565b60025460ff166105ff57604051638dfc202b60e01b815260040160405180910390fd5b600080602060008451602086016000885af180611e54576040513d6000823e3d81fd5b50506000513d91508115611e6c578060011415611e79565b6001600160a01b0384163b155b15611b2857604051635274afe760e01b81526001600160a01b0385166004820152602401610622565b828054828255906000526020600020908101928215611edd579160200282015b82811115611edd578251825591602001919060010190611ec2565b50611ee9929150611eed565b5090565b5b80821115611ee95760008155600101611eee565b6001600160a01b038116811461136157600080fd5b600060208284031215611f2957600080fd5b8135611f3481611f02565b9392505050565b602080825282518282018190526000919060409081850190868401855b82811015611fb25781518051855286810151878601528581015186860152606080820151908601526080808201519086015260a0808201519086015260c09081015115159085015260e09093019290850190600101611f58565b5091979650505050505050565b60008060408385031215611fd257600080fd5b50508035926020909101359150565b600080600060608486031215611ff657600080fd5b833561200181611f02565b9250602084013561201181611f02565b929592945050506040919091013590565b634e487b7160e01b600052604160045260246000fd5b6000806040838503121561204b57600080fd5b8235915060208084013567ffffffffffffffff8082111561206b57600080fd5b818601915086601f83011261207f57600080fd5b81358181111561209157612091612022565b8060051b604051601f19603f830116810181811085821117156120b6576120b6612022565b6040529182528482019250838101850191898311156120d457600080fd5b938501935b828510156120f2578435845293850193928501926120d9565b8096505050505050509250929050565b60008060006060848603121561211757600080fd5b505081359360208301359350604090920135919050565b6000806040838503121561214157600080fd5b823561214c81611f02565b946020939093013593505050565b60006020828403121561216c57600080fd5b5035919050565b6000806040838503121561218657600080fd5b823591506020830135801515811461219d57600080fd5b809150509250929050565b60008083601f8401126121ba57600080fd5b50813567ffffffffffffffff8111156121d257600080fd5b6020830191508360208260051b8501011115611a2357600080fd5b60008060008060006060868803121561220557600080fd5b853561221081611f02565b9450602086013567ffffffffffffffff8082111561222d57600080fd5b61223989838a016121a8565b9096509450604088013591508082111561225257600080fd5b5061225f888289016121a8565b969995985093965092949392505050565b634e487b7160e01b600052603260045260246000fd5b634e487b7160e01b600052601160045260246000fd5b808201808211156111e9576111e9612286565b6000600182016122c1576122c1612286565b5060010190565b6020808252600f908201526e125b9d985b1a59081c1bdbdb081251608a1b604082015260600190565b6020808252600f908201526e125b9d985b1a59081b1bd8dac81251608a1b604082015260600190565b6020808252825182820181905260009190848201906040850190845b8181101561235257835183529284019291840191600101612336565b50909695505050505050565b818103818111156111e9576111e9612286565b80820281158282048414176111e9576111e9612286565b6000826123a557634e487b7160e01b600052601260045260246000fd5b500490565b634e487b7160e01b600052603160045260246000fdfea2646970667358221220e090479ba7e0b8b396441c61760ddf6df49dd0dc3da75563e0cd0e800314859364736f6c63430008140033",
  "devdoc": {
    "errors": {
      "EnforcedPause()": [
        {
          "details": "The operation failed because the contract is paused."
        }
      ],
      "ExpectedPause()": [
        {
          "details": "The operation failed because the contract is not paused."
        }
      ],
      "OwnableInvalidOwner(address)": [
        {
          "details": "The owner is not a valid owner account. (eg. `address(0)`)"
        }
      ],
      "OwnableUnauthorizedAccount(address)": [
        {
          "details": "The caller account is not authorized to perform an operation."
        }
      ],
      "ReentrancyGuardReentrantCall()": [
        {
          "details": "Unauthorized reentrant call."
        }
      ],
      "SafeERC20FailedOperation(address)": [
        {
          "details": "An operation with an ERC-20 token failed."
        }
      ]
    },
    "events": {
      "Paused(address)": {
        "details": "Emitted when the pause is triggered by `account`."
      },
      "Unpaused(address)": {
        "details": "Emitted when the pause is lifted by `account`."
      }
    },
    "kind": "dev",
    "methods": {
      "addPool(address,uint256[],uint256[])": {
        "custom:events": "Emits PoolAdded event.",
        "details": "Add a new pool for staking.",
        "params": {
          "_lockPeriods": "The array of supported lock periods for the pool.",
          "_rewardRates": "The corresponding reward rates for each lock period.",
          "_stakingToken": "The token that will be staked in the pool."
        }
      },
      "calculateRewards(address,uint256)": {
        "details": "Calculates the pending rewards for a user based on their lock.",
        "params": {
          "lockId": "The ID of the lock to calculate rewards for.",
          "user": "The address of the user."
        },
        "returns": {
          "_0": "The amount of rewards earned for the specified lock."
        }
      },
      "claimRewards(uint256,uint256)": {
        "custom:events": "Emits RewardsClaimed event.",
        "details": "Claims rewards for a specific lock without unlocking the tokens.",
        "params": {
          "lockId": "The ID of the lock the rewards are being claimed for.",
          "poolId": "The ID of the pool the rewards are being claimed from."
        }
      },
      "constructor": {
        "details": "Constructor to initialize the contract with the reward token address.",
        "params": {
          "_rewardToken": "The address of the reward token contract."
        }
      },
      "emergencyUnlockAll()": {
        "custom:events": "Emits Unlocked event for each lock that is modified.",
        "custom:requirements": "Only callable by contract owner.",
        "custom:security-note": "This is a critical function that can override normal staking mechanics.",
        "details": "Emergency function to reset the lock period for all users, allowing immediate withdrawal."
      },
      "getLifetimeRewards(address)": {
        "details": "Retrieves the total rewards earned by a user.",
        "params": {
          "user": "The address of the user to check."
        },
        "returns": {
          "_0": "The total amount of rewards earned by the specified user."
        }
      },
      "getUserLocks(address)": {
        "details": "Retrieves the lock information for a specified user.",
        "params": {
          "user": "The address of the user whose locks to retrieve."
        },
        "returns": {
          "_0": "An array of LockInfo structures for the specified user."
        }
      },
      "owner()": {
        "details": "Returns the address of the current owner."
      },
      "pause()": {
        "details": "Pauses the staking functionality."
      },
      "paused()": {
        "details": "Returns true if the contract is paused, and false otherwise."
      },
      "recoverTokens(address,address,uint256)": {
        "details": "Allows the owner to recover any ERC20 tokens mistakenly sent to the contract.",
        "params": {
          "amount": "The amount of tokens to recover.",
          "to": "The address to send the recovered tokens to.",
          "token": "The address of the ERC20 token to recover."
        }
      },
      "renounceOwnership()": {
        "details": "Leaves the contract without owner. It will not be possible to call `onlyOwner` functions. Can only be called by the current owner. NOTE: Renouncing ownership will leave the contract without an owner, thereby disabling any functionality that is only available to the owner."
      },
      "setPoolStatus(uint256,bool)": {
        "custom:events": "Emits PoolStatusUpdated event.",
        "details": "Activate or deactivate a staking pool.",
        "params": {
          "isActive": "The new status of the pool (active or inactive).",
          "poolId": "The ID of the pool to update."
        }
      },
      "stake(uint256,uint256,uint256)": {
        "custom:events": "Emits Staked event.",
        "details": "Stake tokens in a specific pool with a lock period.",
        "params": {
          "_amount": "The amount of tokens to stake.",
          "_lockPeriod": "The duration for which the tokens will be locked.",
          "poolId": "The ID of the pool to stake in."
        }
      },
      "transferOwnership(address)": {
        "details": "Transfers ownership of the contract to a new account (`newOwner`). Can only be called by the current owner."
      },
      "unpause()": {
        "details": "Unpauses the staking functionality."
      },
      "unstake(uint256,uint256)": {
        "details": "Unstake tokens and claim rewards for a specific lock.",
        "params": {
          "lockId": "The ID of the lock to unlock.",
          "poolId": "The ID of the pool to unstake from."
        }
      },
      "updateRewardRates(uint256,uint256[])": {
        "custom:events": "Emits RewardRatesUpdated event.",
        "details": "Update the reward rates for a specific pool.",
        "params": {
          "newRewardRates": "The new reward rates corresponding to the existing lock periods.",
          "poolId": "The ID of the pool to update."
        }
      }
    },
    "version": 1
  },
  "userdoc": {
    "kind": "user",
    "methods": {
      "addPool(address,uint256[],uint256[])": {
        "notice": "Only callable by the contract owner.Lock periods and reward rates must match in length."
      },
      "emergencyUnlockAll()": {
        "notice": "This function should only be used in emergency situations where users need immediate access to their funds.This is a one-way operation and cannot be reversed.This function will unlock all locked tokens across all pools.Gas costs will increase with the number of pools and locked positions."
      },
      "pause()": {
        "notice": "Only callable by the contract owner."
      },
      "recoverTokens(address,address,uint256)": {
        "notice": "Only callable by the contract owner."
      },
      "setPoolStatus(uint256,bool)": {
        "notice": "Only callable by the contract owner."
      },
      "stake(uint256,uint256,uint256)": {
        "notice": "This function can be paused by the contract owner in case of emergencies."
      },
      "unpause()": {
        "notice": "Only callable by the contract owner."
      },
      "updateRewardRates(uint256,uint256[])": {
        "notice": "Only callable by the contract owner.Reward rates must match the number of lock periods."
      }
    },
    "version": 1
  },
  "storageLayout": {
    "storage": [
      {
        "astId": 8,
        "contract": "contracts/StakingVault.sol:StakingVault",
        "label": "_owner",
        "offset": 0,
        "slot": "0",
        "type": "t_address"
      },
      {
        "astId": 1843,
        "contract": "contracts/StakingVault.sol:StakingVault",
        "label": "_status",
        "offset": 0,
        "slot": "1",
        "type": "t_uint256"
      },
      {
        "astId": 1724,
        "contract": "contracts/StakingVault.sol:StakingVault",
        "label": "_paused",
        "offset": 0,
        "slot": "2",
        "type": "t_bool"
      },
      {
        "astId": 3146,
        "contract": "contracts/StakingVault.sol:StakingVault",
        "label": "pools",
        "offset": 0,
        "slot": "3",
        "type": "t_array(t_struct(Pool)3127_storage)dyn_storage"
      },
      {
        "astId": 3149,
        "contract": "contracts/StakingVault.sol:StakingVault",
        "label": "rewardToken",
        "offset": 0,
        "slot": "4",
        "type": "t_contract(RewardToken)2050"
      },
      {
        "astId": 3155,
        "contract": "contracts/StakingVault.sol:StakingVault",
        "label": "userLocks",
        "offset": 0,
        "slot": "5",
        "type": "t_mapping(t_address,t_array(t_struct(LockInfo)3142_storage)dyn_storage)"
      },
      {
        "astId": 3159,
        "contract": "contracts/StakingVault.sol:StakingVault",
        "label": "lifetimeRewards",
        "offset": 0,
        "slot": "6",
        "type": "t_mapping(t_address,t_uint256)"
      },
      {
        "astId": 3162,
        "contract": "contracts/StakingVault.sol:StakingVault",
        "label": "lockedUsers",
        "offset": 0,
        "slot": "7",
        "type": "t_array(t_address)dyn_storage"
      }
    ],
    "types": {
      "t_address": {
        "encoding": "inplace",
        "label": "address",
        "numberOfBytes": "20"
      },
      "t_array(t_address)dyn_storage": {
        "base": "t_address",
        "encoding": "dynamic_array",
        "label": "address[]",
        "numberOfBytes": "32"
      },
      "t_array(t_struct(LockInfo)3142_storage)dyn_storage": {
        "base": "t_struct(LockInfo)3142_storage",
        "encoding": "dynamic_array",
        "label": "struct StakingVault.LockInfo[]",
        "numberOfBytes": "32"
      },
      "t_array(t_struct(Pool)3127_storage)dyn_storage": {
        "base": "t_struct(Pool)3127_storage",
        "encoding": "dynamic_array",
        "label": "struct StakingVault.Pool[]",
        "numberOfBytes": "32"
      },
      "t_array(t_uint256)dyn_storage": {
        "base": "t_uint256",
        "encoding": "dynamic_array",
        "label": "uint256[]",
        "numberOfBytes": "32"
      },
      "t_bool": {
        "encoding": "inplace",
        "label": "bool",
        "numberOfBytes": "1"
      },
      "t_contract(IERC20)967": {
        "encoding": "inplace",
        "label": "contract IERC20",
        "numberOfBytes": "20"
      },
      "t_contract(RewardToken)2050": {
        "encoding": "inplace",
        "label": "contract RewardToken",
        "numberOfBytes": "20"
      },
      "t_mapping(t_address,t_array(t_struct(LockInfo)3142_storage)dyn_storage)": {
        "encoding": "mapping",
        "key": "t_address",
        "label": "mapping(address => struct StakingVault.LockInfo[])",
        "numberOfBytes": "32",
        "value": "t_array(t_struct(LockInfo)3142_storage)dyn_storage"
      },
      "t_mapping(t_address,t_uint256)": {
        "encoding": "mapping",
        "key": "t_address",
        "label": "mapping(address => uint256)",
        "numberOfBytes": "32",
        "value": "t_uint256"
      },
      "t_struct(LockInfo)3142_storage": {
        "encoding": "inplace",
        "label": "struct StakingVault.LockInfo",
        "members": [
          {
            "astId": 3129,
            "contract": "contracts/StakingVault.sol:StakingVault",
            "label": "lockId",
            "offset": 0,
            "slot": "0",
            "type": "t_uint256"
          },
          {
            "astId": 3131,
            "contract": "contracts/StakingVault.sol:StakingVault",
            "label": "amount",
            "offset": 0,
            "slot": "1",
            "type": "t_uint256"
          },
          {
            "astId": 3133,
            "contract": "contracts/StakingVault.sol:StakingVault",
            "label": "lockPeriod",
            "offset": 0,
            "slot": "2",
            "type": "t_uint256"
          },
          {
            "astId": 3135,
            "contract": "contracts/StakingVault.sol:StakingVault",
            "label": "unlockTime",
            "offset": 0,
            "slot": "3",
            "type": "t_uint256"
          },
          {
            "astId": 3137,
            "contract": "contracts/StakingVault.sol:StakingVault",
            "label": "lastClaimTime",
            "offset": 0,
            "slot": "4",
            "type": "t_uint256"
          },
          {
            "astId": 3139,
            "contract": "contracts/StakingVault.sol:StakingVault",
            "label": "poolId",
            "offset": 0,
            "slot": "5",
            "type": "t_uint256"
          },
          {
            "astId": 3141,
            "contract": "contracts/StakingVault.sol:StakingVault",
            "label": "isLocked",
            "offset": 0,
            "slot": "6",
            "type": "t_bool"
          }
        ],
        "numberOfBytes": "224"
      },
      "t_struct(Pool)3127_storage": {
        "encoding": "inplace",
        "label": "struct StakingVault.Pool",
        "members": [
          {
            "astId": 3115,
            "contract": "contracts/StakingVault.sol:StakingVault",
            "label": "poolId",
            "offset": 0,
            "slot": "0",
            "type": "t_uint256"
          },
          {
            "astId": 3118,
            "contract": "contracts/StakingVault.sol:StakingVault",
            "label": "stakingToken",
            "offset": 0,
            "slot": "1",
            "type": "t_contract(IERC20)967"
          },
          {
            "astId": 3121,
            "contract": "contracts/StakingVault.sol:StakingVault",
            "label": "lockPeriods",
            "offset": 0,
            "slot": "2",
            "type": "t_array(t_uint256)dyn_storage"
          },
          {
            "astId": 3124,
            "contract": "contracts/StakingVault.sol:StakingVault",
            "label": "rewardRates",
            "offset": 0,
            "slot": "3",
            "type": "t_array(t_uint256)dyn_storage"
          },
          {
            "astId": 3126,
            "contract": "contracts/StakingVault.sol:StakingVault",
            "label": "isActive",
            "offset": 0,
            "slot": "4",
            "type": "t_bool"
          }
        ],
        "numberOfBytes": "160"
      },
      "t_uint256": {
        "encoding": "inplace",
        "label": "uint256",
        "numberOfBytes": "32"
      }
    }
  }
}