{
  "address": "0x8d9F6efD245e314e6B1e52C15E029faeFf34900E",
  "abi": [
    {
      "inputs": [
        {
          "internalType": "address",
          "name": "_rewardToken",
          "type": "address"
        }
      ],
      "stateMutability": "nonpayable",
      "type": "constructor"
    },
    {
      "inputs": [],
      "name": "EnforcedPause",
      "type": "error"
    },
    {
      "inputs": [],
      "name": "ExpectedPause",
      "type": "error"
    },
    {
      "inputs": [
        {
          "internalType": "address",
          "name": "owner",
          "type": "address"
        }
      ],
      "name": "OwnableInvalidOwner",
      "type": "error"
    },
    {
      "inputs": [
        {
          "internalType": "address",
          "name": "account",
          "type": "address"
        }
      ],
      "name": "OwnableUnauthorizedAccount",
      "type": "error"
    },
    {
      "inputs": [],
      "name": "ReentrancyGuardReentrantCall",
      "type": "error"
    },
    {
      "inputs": [
        {
          "internalType": "address",
          "name": "token",
          "type": "address"
        }
      ],
      "name": "SafeERC20FailedOperation",
      "type": "error"
    },
    {
      "anonymous": false,
      "inputs": [
        {
          "indexed": true,
          "internalType": "address",
          "name": "user",
          "type": "address"
        },
        {
          "indexed": true,
          "internalType": "uint256",
          "name": "lockId",
          "type": "uint256"
        },
        {
          "indexed": false,
          "internalType": "uint256",
          "name": "amount",
          "type": "uint256"
        },
        {
          "indexed": false,
          "internalType": "uint256",
          "name": "lockPeriod",
          "type": "uint256"
        },
        {
          "indexed": false,
          "internalType": "uint256",
          "name": "unlockTime",
          "type": "uint256"
        },
        {
          "indexed": false,
          "internalType": "uint256",
          "name": "poolId",
          "type": "uint256"
        }
      ],
      "name": "Locked",
      "type": "event"
    },
    {
      "anonymous": false,
      "inputs": [
        {
          "indexed": true,
          "internalType": "address",
          "name": "previousOwner",
          "type": "address"
        },
        {
          "indexed": true,
          "internalType": "address",
          "name": "newOwner",
          "type": "address"
        }
      ],
      "name": "OwnershipTransferred",
      "type": "event"
    },
    {
      "anonymous": false,
      "inputs": [
        {
          "indexed": false,
          "internalType": "address",
          "name": "account",
          "type": "address"
        }
      ],
      "name": "Paused",
      "type": "event"
    },
    {
      "anonymous": false,
      "inputs": [
        {
          "indexed": true,
          "internalType": "uint256",
          "name": "poolId",
          "type": "uint256"
        },
        {
          "indexed": true,
          "internalType": "address",
          "name": "stakingToken",
          "type": "address"
        }
      ],
      "name": "PoolAdded",
      "type": "event"
    },
    {
      "anonymous": false,
      "inputs": [
        {
          "indexed": true,
          "internalType": "uint256",
          "name": "poolId",
          "type": "uint256"
        },
        {
          "indexed": false,
          "internalType": "bool",
          "name": "isActive",
          "type": "bool"
        }
      ],
      "name": "PoolStatusUpdated",
      "type": "event"
    },
    {
      "anonymous": false,
      "inputs": [
        {
          "indexed": true,
          "internalType": "uint256",
          "name": "poolId",
          "type": "uint256"
        },
        {
          "indexed": false,
          "internalType": "uint256[]",
          "name": "newRewardRates",
          "type": "uint256[]"
        }
      ],
      "name": "RewardRatesUpdated",
      "type": "event"
    },
    {
      "anonymous": false,
      "inputs": [
        {
          "indexed": true,
          "internalType": "address",
          "name": "user",
          "type": "address"
        },
        {
          "indexed": true,
          "internalType": "uint256",
          "name": "poolId",
          "type": "uint256"
        },
        {
          "indexed": false,
          "internalType": "uint256",
          "name": "amount",
          "type": "uint256"
        }
      ],
      "name": "RewardsClaimed",
      "type": "event"
    },
    {
      "anonymous": false,
      "inputs": [
        {
          "indexed": true,
          "internalType": "address",
          "name": "user",
          "type": "address"
        },
        {
          "indexed": true,
          "internalType": "uint256",
          "name": "poolId",
          "type": "uint256"
        },
        {
          "indexed": false,
          "internalType": "uint256",
          "name": "amount",
          "type": "uint256"
        },
        {
          "indexed": false,
          "internalType": "uint256",
          "name": "lockPeriod",
          "type": "uint256"
        }
      ],
      "name": "Staked",
      "type": "event"
    },
    {
      "anonymous": false,
      "inputs": [
        {
          "indexed": true,
          "internalType": "address",
          "name": "user",
          "type": "address"
        },
        {
          "indexed": true,
          "internalType": "uint256",
          "name": "lockId",
          "type": "uint256"
        },
        {
          "indexed": false,
          "internalType": "uint256",
          "name": "amount",
          "type": "uint256"
        },
        {
          "indexed": false,
          "internalType": "uint256",
          "name": "poolId",
          "type": "uint256"
        }
      ],
      "name": "Unlocked",
      "type": "event"
    },
    {
      "anonymous": false,
      "inputs": [
        {
          "indexed": false,
          "internalType": "address",
          "name": "account",
          "type": "address"
        }
      ],
      "name": "Unpaused",
      "type": "event"
    },
    {
      "anonymous": false,
      "inputs": [
        {
          "indexed": true,
          "internalType": "address",
          "name": "user",
          "type": "address"
        },
        {
          "indexed": true,
          "internalType": "uint256",
          "name": "poolId",
          "type": "uint256"
        },
        {
          "indexed": false,
          "internalType": "uint256",
          "name": "amount",
          "type": "uint256"
        },
        {
          "indexed": false,
          "internalType": "uint256",
          "name": "reward",
          "type": "uint256"
        }
      ],
      "name": "Unstaked",
      "type": "event"
    },
    {
      "inputs": [
        {
          "internalType": "contract IERC20",
          "name": "_stakingToken",
          "type": "address"
        },
        {
          "internalType": "uint256[]",
          "name": "_lockPeriods",
          "type": "uint256[]"
        },
        {
          "internalType": "uint256[]",
          "name": "_rewardRates",
          "type": "uint256[]"
        }
      ],
      "name": "addPool",
      "outputs": [],
      "stateMutability": "nonpayable",
      "type": "function"
    },
    {
      "inputs": [
        {
          "internalType": "address",
          "name": "user",
          "type": "address"
        },
        {
          "internalType": "uint256",
          "name": "lockId",
          "type": "uint256"
        }
      ],
      "name": "calculateRewards",
      "outputs": [
        {
          "internalType": "uint256",
          "name": "",
          "type": "uint256"
        }
      ],
      "stateMutability": "view",
      "type": "function"
    },
    {
      "inputs": [
        {
          "internalType": "uint256",
          "name": "poolId",
          "type": "uint256"
        },
        {
          "internalType": "uint256",
          "name": "lockId",
          "type": "uint256"
        }
      ],
      "name": "claimRewards",
      "outputs": [],
      "stateMutability": "nonpayable",
      "type": "function"
    },
    {
      "inputs": [],
      "name": "emergencyUnlockAll",
      "outputs": [],
      "stateMutability": "nonpayable",
      "type": "function"
    },
    {
      "inputs": [
        {
          "internalType": "address",
          "name": "user",
          "type": "address"
        }
      ],
      "name": "getLifetimeRewards",
      "outputs": [
        {
          "internalType": "uint256",
          "name": "",
          "type": "uint256"
        }
      ],
      "stateMutability": "view",
      "type": "function"
    },
    {
      "inputs": [
        {
          "internalType": "uint256",
          "name": "poolId",
          "type": "uint256"
        }
      ],
      "name": "getLockedUsersByPool",
      "outputs": [
        {
          "internalType": "address[]",
          "name": "",
          "type": "address[]"
        }
      ],
      "stateMutability": "view",
      "type": "function"
    },
    {
      "inputs": [],
      "name": "getPools",
      "outputs": [
        {
          "components": [
            {
              "internalType": "uint256",
              "name": "poolId",
              "type": "uint256"
            },
            {
              "internalType": "contract IERC20",
              "name": "stakingToken",
              "type": "address"
            },
            {
              "internalType": "uint256[]",
              "name": "lockPeriods",
              "type": "uint256[]"
            },
            {
              "internalType": "uint256[]",
              "name": "rewardRates",
              "type": "uint256[]"
            },
            {
              "internalType": "bool",
              "name": "isActive",
              "type": "bool"
            }
          ],
          "internalType": "struct StakingVault.Pool[]",
          "name": "",
          "type": "tuple[]"
        }
      ],
      "stateMutability": "view",
      "type": "function"
    },
    {
      "inputs": [
        {
          "internalType": "uint256",
          "name": "poolId",
          "type": "uint256"
        }
      ],
      "name": "getStakingAmountByPool",
      "outputs": [
        {
          "internalType": "uint256",
          "name": "",
          "type": "uint256"
        }
      ],
      "stateMutability": "view",
      "type": "function"
    },
    {
      "inputs": [],
      "name": "getTotalLockedUsers",
      "outputs": [
        {
          "internalType": "uint256",
          "name": "",
          "type": "uint256"
        }
      ],
      "stateMutability": "view",
      "type": "function"
    },
    {
      "inputs": [],
      "name": "getTotalStakedAmount",
      "outputs": [
        {
          "internalType": "uint256",
          "name": "",
          "type": "uint256"
        }
      ],
      "stateMutability": "view",
      "type": "function"
    },
    {
      "inputs": [
        {
          "internalType": "address",
          "name": "user",
          "type": "address"
        }
      ],
      "name": "getUserLocks",
      "outputs": [
        {
          "components": [
            {
              "internalType": "uint256",
              "name": "lockId",
              "type": "uint256"
            },
            {
              "internalType": "uint256",
              "name": "amount",
              "type": "uint256"
            },
            {
              "internalType": "uint256",
              "name": "lockPeriod",
              "type": "uint256"
            },
            {
              "internalType": "uint256",
              "name": "unlockTime",
              "type": "uint256"
            },
            {
              "internalType": "uint256",
              "name": "lastClaimTime",
              "type": "uint256"
            },
            {
              "internalType": "uint256",
              "name": "poolId",
              "type": "uint256"
            },
            {
              "internalType": "bool",
              "name": "isLocked",
              "type": "bool"
            }
          ],
          "internalType": "struct StakingVault.LockInfo[]",
          "name": "",
          "type": "tuple[]"
        }
      ],
      "stateMutability": "view",
      "type": "function"
    },
    {
      "inputs": [
        {
          "internalType": "address",
          "name": "",
          "type": "address"
        }
      ],
      "name": "lifetimeRewards",
      "outputs": [
        {
          "internalType": "uint256",
          "name": "",
          "type": "uint256"
        }
      ],
      "stateMutability": "view",
      "type": "function"
    },
    {
      "inputs": [
        {
          "internalType": "uint256",
          "name": "",
          "type": "uint256"
        }
      ],
      "name": "lockedUsers",
      "outputs": [
        {
          "internalType": "address",
          "name": "",
          "type": "address"
        }
      ],
      "stateMutability": "view",
      "type": "function"
    },
    {
      "inputs": [],
      "name": "owner",
      "outputs": [
        {
          "internalType": "address",
          "name": "",
          "type": "address"
        }
      ],
      "stateMutability": "view",
      "type": "function"
    },
    {
      "inputs": [],
      "name": "pause",
      "outputs": [],
      "stateMutability": "nonpayable",
      "type": "function"
    },
    {
      "inputs": [],
      "name": "paused",
      "outputs": [
        {
          "internalType": "bool",
          "name": "",
          "type": "bool"
        }
      ],
      "stateMutability": "view",
      "type": "function"
    },
    {
      "inputs": [
        {
          "internalType": "uint256",
          "name": "",
          "type": "uint256"
        }
      ],
      "name": "pools",
      "outputs": [
        {
          "internalType": "uint256",
          "name": "poolId",
          "type": "uint256"
        },
        {
          "internalType": "contract IERC20",
          "name": "stakingToken",
          "type": "address"
        },
        {
          "internalType": "bool",
          "name": "isActive",
          "type": "bool"
        }
      ],
      "stateMutability": "view",
      "type": "function"
    },
    {
      "inputs": [
        {
          "internalType": "contract IERC20",
          "name": "token",
          "type": "address"
        },
        {
          "internalType": "address",
          "name": "to",
          "type": "address"
        },
        {
          "internalType": "uint256",
          "name": "amount",
          "type": "uint256"
        }
      ],
      "name": "recoverTokens",
      "outputs": [],
      "stateMutability": "nonpayable",
      "type": "function"
    },
    {
      "inputs": [],
      "name": "renounceOwnership",
      "outputs": [],
      "stateMutability": "nonpayable",
      "type": "function"
    },
    {
      "inputs": [],
      "name": "rewardToken",
      "outputs": [
        {
          "internalType": "contract RewardToken",
          "name": "",
          "type": "address"
        }
      ],
      "stateMutability": "view",
      "type": "function"
    },
    {
      "inputs": [
        {
          "internalType": "uint256",
          "name": "poolId",
          "type": "uint256"
        },
        {
          "internalType": "bool",
          "name": "isActive",
          "type": "bool"
        }
      ],
      "name": "setPoolStatus",
      "outputs": [],
      "stateMutability": "nonpayable",
      "type": "function"
    },
    {
      "inputs": [
        {
          "internalType": "address",
          "name": "_rewardToken",
          "type": "address"
        }
      ],
      "name": "setRewardToken",
      "outputs": [],
      "stateMutability": "nonpayable",
      "type": "function"
    },
    {
      "inputs": [
        {
          "internalType": "uint256",
          "name": "poolId",
          "type": "uint256"
        },
        {
          "internalType": "uint256",
          "name": "_amount",
          "type": "uint256"
        },
        {
          "internalType": "uint256",
          "name": "_lockPeriod",
          "type": "uint256"
        }
      ],
      "name": "stake",
      "outputs": [],
      "stateMutability": "nonpayable",
      "type": "function"
    },
    {
      "inputs": [
        {
          "internalType": "address",
          "name": "newOwner",
          "type": "address"
        }
      ],
      "name": "transferOwnership",
      "outputs": [],
      "stateMutability": "nonpayable",
      "type": "function"
    },
    {
      "inputs": [],
      "name": "unpause",
      "outputs": [],
      "stateMutability": "nonpayable",
      "type": "function"
    },
    {
      "inputs": [
        {
          "internalType": "uint256",
          "name": "poolId",
          "type": "uint256"
        },
        {
          "internalType": "uint256",
          "name": "lockId",
          "type": "uint256"
        }
      ],
      "name": "unstake",
      "outputs": [],
      "stateMutability": "nonpayable",
      "type": "function"
    },
    {
      "inputs": [
        {
          "internalType": "uint256",
          "name": "poolId",
          "type": "uint256"
        },
        {
          "internalType": "uint256[]",
          "name": "newRewardRates",
          "type": "uint256[]"
        }
      ],
      "name": "updateRewardRates",
      "outputs": [],
      "stateMutability": "nonpayable",
      "type": "function"
    },
    {
      "inputs": [
        {
          "internalType": "address",
          "name": "",
          "type": "address"
        },
        {
          "internalType": "uint256",
          "name": "",
          "type": "uint256"
        }
      ],
      "name": "userLocks",
      "outputs": [
        {
          "internalType": "uint256",
          "name": "lockId",
          "type": "uint256"
        },
        {
          "internalType": "uint256",
          "name": "amount",
          "type": "uint256"
        },
        {
          "internalType": "uint256",
          "name": "lockPeriod",
          "type": "uint256"
        },
        {
          "internalType": "uint256",
          "name": "unlockTime",
          "type": "uint256"
        },
        {
          "internalType": "uint256",
          "name": "lastClaimTime",
          "type": "uint256"
        },
        {
          "internalType": "uint256",
          "name": "poolId",
          "type": "uint256"
        },
        {
          "internalType": "bool",
          "name": "isLocked",
          "type": "bool"
        }
      ],
      "stateMutability": "view",
      "type": "function"
    }
  ],
  "transactionHash": "0x5636844298e11e002793a6f9e9c4e523765b170da05596606e43792681af25dd",
  "args": [
    "0x73A0fa94076a8687dF9F4dEdbb164eebcf31009E"
  ],
  "numDeployments": 1,
  "solcInputHash": "ea7cddd8bc40af468257999e90843ecf",
  "bytecode": "0x60806040523480156200001157600080fd5b5060405162002ca638038062002ca68339810160408190526200003491620000eb565b33806200005b57604051631e4fbdf760e01b81526000600482015260240160405180910390fd5b62000066816200009b565b50600180556002805460ff19169055600480546001600160a01b0319166001600160a01b03929092169190911790556200011d565b600080546001600160a01b038381166001600160a01b0319831681178455604051919092169283917f8be0079c531659141344cd1fd0a4f28419497f9722a3daafe3b4186f6b6457e09190a35050565b600060208284031215620000fe57600080fd5b81516001600160a01b03811681146200011657600080fd5b9392505050565b612b79806200012d6000396000f3fe608060405234801561001057600080fd5b50600436106101c45760003560e01c80638aee8127116100f9578063b7d6687111610097578063e20cc07911610071578063e20cc0791461041f578063efea2d5c14610427578063f2fde38b1461043a578063f7c618c11461044d57600080fd5b8063b7d66871146103e6578063bbcaf3fe146103f9578063beb8314c1461040c57600080fd5b80639e2c8a5b116100d35780639e2c8a5b1461033e578063a638f2e214610351578063aa33fedb14610364578063ac4afa38146103ae57600080fd5b80638aee8127146102f35780638da5cb5b146103065780639361983c1461032b57600080fd5b80635c975abb11610166578063673a2a1f11610140578063673a2a1f146102a5578063715018a6146102ba5780637d3f0e7d146102c25780638456cb59146102eb57600080fd5b80635c975abb146102695780635e9020151461027f5780635f3e849f1461029257600080fd5b80633f4ba83a116101a25780633f4ba83a1461022457806342b303511461022e578063483984541461024e578063594dd4321461025657600080fd5b80631d336d62146101c957806323a35de9146101fc57806338adb6f01461021c575b600080fd5b6101e96101d736600461258f565b60066020526000908152604090205481565b6040519081526020015b60405180910390f35b61020f61020a36600461258f565b610460565b6040516101f391906125b3565b6101e961051a565b61022c610688565b005b61024161023c366004612637565b61069a565b6040516101f39190612650565b6007546101e9565b61022c61026436600461269d565b610993565b60025460ff1660405190151581526020016101f3565b6101e961028d366004612637565b610b45565b61022c6102a03660046126bf565b610cff565b6102ad610d76565b6040516101f3919061273b565b61022c610eab565b6101e96102d036600461258f565b6001600160a01b031660009081526006602052604090205490565b61022c610ebd565b61022c61030136600461258f565b610ecd565b6000546001600160a01b03165b6040516001600160a01b0390911681526020016101f3565b61022c610339366004612805565b610ef7565b61022c61034c36600461269d565b611026565b61022c61035f3660046128cf565b61131c565b6103776103723660046128fb565b611552565b604080519788526020880196909652948601939093526060850191909152608084015260a0830152151560c082015260e0016101f3565b6103c16103bc366004612637565b6115af565b604080519384526001600160a01b0390921660208401521515908201526060016101f3565b6103136103f4366004612637565b6115f1565b61022c610407366004612927565b61161b565b6101e961041a3660046128fb565b6116e6565b61022c611867565b61022c6104353660046129a1565b6119dc565b61022c61044836600461258f565b611c03565b600454610313906001600160a01b031681565b6001600160a01b0381166000908152600560209081526040808320805482518185028101850190935280835260609492939192909184015b8282101561050f5760008481526020908190206040805160e0810182526007860290920180548352600180820154848601526002820154928401929092526003810154606084015260048101546080840152600581015460a08401526006015460ff16151560c08301529083529092019101610498565b505050509050919050565b600080805b600754811015610682576000600560006007848154811061054257610542612a24565b60009182526020808320909101546001600160a01b031683528281019390935260409182018120805483518186028101860190945280845292939092919084015b828210156105fa5760008481526020908190206040805160e0810182526007860290920180548352600180820154848601526002820154928401929092526003810154606084015260048101546080840152600581015460a08401526006015460ff16151560c08301529083529092019101610583565b50505050905060005b815181101561066d5781818151811061061e5761061e612a24565b602002602001015160c001511561065b5781818151811061064157610641612a24565b602002602001015160200151846106589190612a50565b93505b8061066581612a63565b915050610603565b5050808061067a90612a63565b91505061051f565b50919050565b610690611c3e565b610698611c6b565b565b60035460609082106106c75760405162461bcd60e51b81526004016106be90612a7c565b60405180910390fd5b60075460009067ffffffffffffffff8111156106e5576106e56127ef565b60405190808252806020026020018201604052801561070e578160200160208202803683370190505b5090506000805b6007548110156108e1576000600560006007848154811061073857610738612a24565b60009182526020808320909101546001600160a01b031683528281019390935260409182018120805483518186028101860190945280845292939092919084015b828210156107f05760008481526020908190206040805160e0810182526007860290920180548352600180820154848601526002820154928401929092526003810154606084015260048101546080840152600581015460a08401526006015460ff16151560c08301529083529092019101610779565b50505050905060005b81518110156108cc578682828151811061081557610815612a24565b602002602001015160a00151148015610848575081818151811061083b5761083b612a24565b602002602001015160c001515b156108ba576007838154811061086057610860612a24565b9060005260206000200160009054906101000a90046001600160a01b031685858151811061089057610890612a24565b6001600160a01b0390921660209283029190910190910152836108b281612a63565b9450506108cc565b806108c481612a63565b9150506107f9565b505080806108d990612a63565b915050610715565b5060008167ffffffffffffffff8111156108fd576108fd6127ef565b604051908082528060200260200182016040528015610926578160200160208202803683370190505b50905060005b8281101561098a5783818151811061094657610946612a24565b602002602001015182828151811061096057610960612a24565b6001600160a01b03909216602092830291909101909101528061098281612a63565b91505061092c565b50949350505050565b60035482106109b45760405162461bcd60e51b81526004016106be90612a7c565b3360009081526005602052604090205481106109e25760405162461bcd60e51b81526004016106be90612aa5565b60006109ee33836116e6565b905060008111610a375760405162461bcd60e51b81526020600482015260146024820152734e6f207265776172647320617661696c61626c6560601b60448201526064016106be565b600480546040516340c10f1960e01b81523392810192909252602482018390526001600160a01b0316906340c10f1990604401600060405180830381600087803b158015610a8457600080fd5b505af1158015610a98573d6000803e3d6000fd5b50503360009081526006602052604081208054859450909250610abc908490612a50565b9091555050336000908152600560205260408120805484908110610ae257610ae2612a24565b9060005260206000209060070201905042816004018190555083336001600160a01b03167fdacbdde355ba930696a362ea6738feb9f8bd52dfb3d81947558fd3217e23e32584604051610b3791815260200190565b60405180910390a350505050565b6003546000908210610b695760405162461bcd60e51b81526004016106be90612a7c565b6000805b600754811015610cf85760006005600060078481548110610b9057610b90612a24565b60009182526020808320909101546001600160a01b031683528281019390935260409182018120805483518186028101860190945280845292939092919084015b82821015610c485760008481526020908190206040805160e0810182526007860290920180548352600180820154848601526002820154928401929092526003810154606084015260048101546080840152600581015460a08401526006015460ff16151560c08301529083529092019101610bd1565b50505050905060005b8151811015610ce35785828281518110610c6d57610c6d612a24565b602002602001015160a00151148015610ca05750818181518110610c9357610c93612a24565b602002602001015160c001515b15610cd157818181518110610cb757610cb7612a24565b60200260200101516020015184610cce9190612a50565b93505b80610cdb81612a63565b915050610c51565b50508080610cf090612a63565b915050610b6d565b5092915050565b610d07611c3e565b6001600160a01b038216610d5d5760405162461bcd60e51b815260206004820152601e60248201527f43616e6e6f74207265636f76657220746f207a65726f2061646472657373000060448201526064016106be565b610d716001600160a01b0384168383611cbd565b505050565b60606003805480602002602001604051908101604052809291908181526020016000905b82821015610ea25760008481526020908190206040805160a081018252600586029092018054835260018101546001600160a01b0316838501526002810180548351818702810187018552818152949592949386019392830182828015610e2057602002820191906000526020600020905b815481526020019060010190808311610e0c575b5050505050815260200160038201805480602002602001604051908101604052809291908181526020018280548015610e7857602002820191906000526020600020905b815481526020019060010190808311610e64575b50505091835250506004919091015460ff1615156020918201529082526001929092019101610d9a565b50505050905090565b610eb3611c3e565b6106986000611d1c565b610ec5611c3e565b610698611d6c565b610ed5611c3e565b600480546001600160a01b0319166001600160a01b0392909216919091179055565b610eff611c3e565b6003548210610f465760405162461bcd60e51b8152602060048201526013602482015272141bdbdb08191bd95cc81b9bdd08195e1a5cdd606a1b60448201526064016106be565b600060038381548110610f5b57610f5b612a24565b906000526020600020906005020190508151816002018054905014610fd35760405162461bcd60e51b815260206004820152602860248201527f4d69736d617463686564206c6f636b20706572696f647320616e642072657761604482015267726420726174657360c01b60648201526084016106be565b8151610fe8906003830190602085019061251a565b50827fbda750cbf366482de2e4f9ae114a7cd7cf47576f6ddb09118dd445466d413927836040516110199190612ace565b60405180910390a2505050565b60035482106110475760405162461bcd60e51b81526004016106be90612a7c565b3360009081526005602052604090205481106110755760405162461bcd60e51b81526004016106be90612aa5565b60006003838154811061108a5761108a612a24565b60009182526020918290206040805160a08101825260059093029091018054835260018101546001600160a01b031683850152600281018054835181870281018701855281815294959294938601939283018282801561110957602002820191906000526020600020905b8154815260200190600101908083116110f5575b505050505081526020016003820180548060200260200160405190810160405280929190818152602001828054801561116157602002820191906000526020600020905b81548152602001906001019080831161114d575b50505091835250506004919091015460ff1615156020909101529050600061118933846116e6565b90506000806111983386611da9565b9150915080156111ea5760405162461bcd60e51b815260206004820152601860248201527f4c6f636b20706572696f64206e6f7420796574206f766572000000000000000060448201526064016106be565b600480546040516340c10f1960e01b81523392810192909252602482018590526001600160a01b0316906340c10f1990604401600060405180830381600087803b15801561123757600080fd5b505af115801561124b573d6000803e3d6000fd5b505050602085015161126891506001600160a01b03163384611cbd565b3360009081526006602052604081208054859290611287908490612a50565b90915550503360009081526005602052604081208054879081106112ad576112ad612a24565b9060005260206000209060070201905042816004018190555086336001600160a01b03167f204fccf0d92ed8d48f204adb39b2e81e92bad0dedb93f5716ca9478cfb57de00858760405161130b929190918252602082015260400190565b60405180910390a350505050505050565b6113246120a2565b60035483106113455760405162461bcd60e51b81526004016106be90612a7c565b60006003848154811061135a5761135a612a24565b60009182526020918290206040805160a08101825260059093029091018054835260018101546001600160a01b03168385015260028101805483518187028101870185528181529495929493860193928301828280156113d957602002820191906000526020600020905b8154815260200190600101908083116113c5575b505050505081526020016003820180548060200260200160405190810160405280929190818152602001828054801561143157602002820191906000526020600020905b81548152602001906001019080831161141d575b50505091835250506004919091015460ff16151560209091015260808101519091506114945760405162461bcd60e51b8152602060048201526012602482015271506f6f6c206973206e6f742061637469766560701b60448201526064016106be565b60006114a085846120c6565b9050600081116114e85760405162461bcd60e51b8152602060048201526013602482015272125b9d985b1a59081b1bd8dac81c195c9a5bd9606a1b60448201526064016106be565b6020820151611502906001600160a01b0316333087612167565b61150e338686866121a6565b6040805185815260208101859052869133917fb4caaf29adda3eefee3ad552a8e85058589bf834c7466cae4ee58787f70589ed910160405180910390a35050505050565b6005602052816000526040600020818154811061156e57600080fd5b600091825260209091206007909102018054600182015460028301546003840154600485015460058601546006909601549497509295509093909260ff1687565b600381815481106115bf57600080fd5b60009182526020909120600590910201805460018201546004909201549092506001600160a01b039091169060ff1683565b6007818154811061160157600080fd5b6000918252602090912001546001600160a01b0316905081565b611623611c3e565b600354821061166a5760405162461bcd60e51b8152602060048201526013602482015272141bdbdb08191bd95cc81b9bdd08195e1a5cdd606a1b60448201526064016106be565b806003838154811061167e5761167e612a24565b906000526020600020906005020160040160006101000a81548160ff021916908315150217905550817f42e14968ae1060172ac61821229b29fcbdb6c4ea07455d1610d026cff117b63e826040516116da911515815260200190565b60405180910390a25050565b6001600160a01b03821660009081526005602052604081208054829142918391908690811061171757611717612a24565b600091825260208083206040805160e08101825260079094029091018054845260018101549284019290925260028201549083018190526003820154606084015260048201546080840152600582015460a0840181905260069092015460ff16151560c084015291935061178a916120c6565b9050600081116117d35760405162461bcd60e51b815260206004820152601460248201527324b73b30b634b2103637b1b5903832b934b7b21760611b60448201526064016106be565b8160c001511561185a5760008083608001511161180357826040015183606001516117fe9190612ae1565b611809565b82608001515b6118139085612ae1565b905082604001516127106118279190612af4565b818385602001516118389190612af4565b6118429190612af4565b61184c9190612b0b565b6118569086612a50565b9450505b5091925050505b92915050565b61186f611c3e565b60005b6007548110156119d95760005b600560006007848154811061189657611896612a24565b60009182526020808320909101546001600160a01b031683528201929092526040019020548110156119c657600060056000600785815481106118db576118db612a24565b60009182526020808320909101546001600160a01b03168352820192909252604001902080548390811061191157611911612a24565b60009182526020909120600790910201600681015490915060ff16156119b35760068101805460ff191690554260038201558054600780548590811061195957611959612a24565b600091825260209182902001546001840154600585015460408051928352938201526001600160a01b03909116917f5245d528087a96a64f4589a764f00061e4671eab90cb1e019b1a5b24b2e4c2a8910160405180910390a35b50806119be81612a63565b91505061187f565b50806119d181612a63565b915050611872565b50565b6119e4611c3e565b6001600160a01b038516611a3a5760405162461bcd60e51b815260206004820152601d60248201527f496e76616c6964207374616b696e6720746f6b656e206164647265737300000060448201526064016106be565b828114611a935760405162461bcd60e51b815260206004820152602160248201527f4d69736d617463686564206c6f636b20706572696f647320616e6420726174656044820152607360f81b60648201526084016106be565b6000600380549050905060036040518060a00160405280838152602001886001600160a01b031681526020018787808060200260200160405190810160405280939291908181526020018383602002808284376000920191909152505050908252506040805160208781028281018201909352878252928301929091889188918291850190849080828437600092018290525093855250506001602093840181905285548082018755958352918390208451600590960201948555508282015190840180546001600160a01b0319166001600160a01b0390921691909117905560408201518051929392611b8d926002850192019061251a565b5060608201518051611ba991600384019160209091019061251a565b50608091909101516004909101805460ff19169115159190911790556040516001600160a01b0387169082907f1f1f6396247a5ba59b7b1e094ec3a8e439d4dace0c5ac4fe3ecfde3e68e03a8a90600090a3505050505050565b611c0b611c3e565b6001600160a01b038116611c3557604051631e4fbdf760e01b8152600060048201526024016106be565b6119d981611d1c565b6000546001600160a01b031633146106985760405163118cdaa760e01b81523360048201526024016106be565b611c73612486565b6002805460ff191690557f5db9ee0a495bf2e6ff9c91a7834c1ba4fdd244a5e8aa4e537bd38aeae4b073aa335b6040516001600160a01b03909116815260200160405180910390a1565b6040516001600160a01b03838116602483015260448201839052610d7191859182169063a9059cbb906064015b604051602081830303815290604052915060e01b6020820180516001600160e01b0383818316178352505050506124a9565b600080546001600160a01b038381166001600160a01b0319831681178455604051919092169283917f8be0079c531659141344cd1fd0a4f28419497f9722a3daafe3b4186f6b6457e09190a35050565b611d746120a2565b6002805460ff191660011790557f62e78cea01bee320cd4e420270b5ea74000d11b0c9f74754ebdbfc544b05a258611ca03390565b6000806001600160a01b038416611df95760405162461bcd60e51b8152602060048201526014602482015273496e76616c69642075736572206164647265737360601b60448201526064016106be565b6001600160a01b0384166000908152600560205260409020548310611e305760405162461bcd60e51b81526004016106be90612aa5565b6001600160a01b0384166000908152600560205260408120805485908110611e5a57611e5a612a24565b906000526020600020906007020190508060030154421015611eb55760405162461bcd60e51b81526020600482015260146024820152732637b1b5903832b934b7b2103737ba1037bb32b960611b60448201526064016106be565b600681015460ff16611f015760405162461bcd60e51b8152602060048201526015602482015274131bd8dac8185b1c9958591e481d5b9b1bd8dad959605a1b60448201526064016106be565b60068101805460ff191690556001600160a01b03851660009081526005602052604081205490036120325760005b60075481101561203057856001600160a01b031660078281548110611f5657611f56612a24565b6000918252602090912001546001600160a01b03160361201e5760078054611f8090600190612ae1565b81548110611f9057611f90612a24565b600091825260209091200154600780546001600160a01b039092169183908110611fbc57611fbc612a24565b9060005260206000200160006101000a8154816001600160a01b0302191690836001600160a01b031602179055506007805480611ffb57611ffb612b2d565b600082815260209020810160001990810180546001600160a01b03191690550190555b8061202881612a63565b915050611f2f565b505b83856001600160a01b03167f5245d528087a96a64f4589a764f00061e4671eab90cb1e019b1a5b24b2e4c2a88360010154846005015460405161207f929190918252602082015260400190565b60405180910390a3600181015460069091015490925060ff1690505b9250929050565b60025460ff16156106985760405163d93c066560e01b815260040160405180910390fd5b600080600384815481106120dc576120dc612a24565b9060005260206000209060050201905060005b600282015481101561215c578382600201828154811061211157612111612a24565b90600052602060002001540361214a5781600301818154811061213657612136612a24565b906000526020600020015492505050611861565b8061215481612a63565b9150506120ef565b506000949350505050565b6040516001600160a01b0384811660248301528381166044830152606482018390526121a09186918216906323b872dd90608401611cea565b50505050565b6001600160a01b0384166121f35760405162461bcd60e51b8152602060048201526014602482015273496e76616c69642075736572206164647265737360601b60448201526064016106be565b60035483106122145760405162461bcd60e51b81526004016106be90612a7c565b600082116122645760405162461bcd60e51b815260206004820181905260248201527f416d6f756e74206d7573742062652067726561746572207468616e207a65726f60448201526064016106be565b600081116122c25760405162461bcd60e51b815260206004820152602560248201527f4c6f636b20706572696f64206d7573742062652067726561746572207468616e604482015264207a65726f60d81b60648201526084016106be565b60006122ce8242612a50565b6001600160a01b03861660009081526005602052604081205491925081900361233d57600780546001810182556000919091527fa66cc928b5edb82af9bd49922954155ab7b0942694bea4ce44661d9a8736c6880180546001600160a01b0319166001600160a01b0388161790555b60056000876001600160a01b03166001600160a01b031681526020019081526020016000206040518060e0016040528083815260200186815260200185815260200184815260200160008152602001878152602001600115158152509080600181540180825580915050600190039060005260206000209060070201600090919091909150600082015181600001556020820151816001015560408201518160020155606082015181600301556080820151816004015560a0820151816005015560c08201518160060160006101000a81548160ff021916908315150217905550505080866001600160a01b03167fa0b15b5afbd8adc1efc429bc38aa12b0f04d6b9b7ab93f6ec76d54603b4be0ee8686868a604051612476949392919093845260208401929092526040830152606082015260800190565b60405180910390a3505050505050565b60025460ff1661069857604051638dfc202b60e01b815260040160405180910390fd5b600080602060008451602086016000885af1806124cc576040513d6000823e3d81fd5b50506000513d915081156124e45780600114156124f1565b6001600160a01b0384163b155b156121a057604051635274afe760e01b81526001600160a01b03851660048201526024016106be565b828054828255906000526020600020908101928215612555579160200282015b8281111561255557825182559160200191906001019061253a565b50612561929150612565565b5090565b5b808211156125615760008155600101612566565b6001600160a01b03811681146119d957600080fd5b6000602082840312156125a157600080fd5b81356125ac8161257a565b9392505050565b602080825282518282018190526000919060409081850190868401855b8281101561262a5781518051855286810151878601528581015186860152606080820151908601526080808201519086015260a0808201519086015260c09081015115159085015260e090930192908501906001016125d0565b5091979650505050505050565b60006020828403121561264957600080fd5b5035919050565b6020808252825182820181905260009190848201906040850190845b818110156126915783516001600160a01b03168352928401929184019160010161266c565b50909695505050505050565b600080604083850312156126b057600080fd5b50508035926020909101359150565b6000806000606084860312156126d457600080fd5b83356126df8161257a565b925060208401356126ef8161257a565b929592945050506040919091013590565b600081518084526020808501945080840160005b8381101561273057815187529582019590820190600101612714565b509495945050505050565b60006020808301818452808551808352604092508286019150828160051b87010184880160005b838110156127e157888303603f19018552815180518452878101516001600160a01b0316888501528681015160a0888601819052906127a382870182612700565b915050606080830151868303828801526127bd8382612700565b60809485015115159790940196909652505094870194925090860190600101612762565b509098975050505050505050565b634e487b7160e01b600052604160045260246000fd5b6000806040838503121561281857600080fd5b8235915060208084013567ffffffffffffffff8082111561283857600080fd5b818601915086601f83011261284c57600080fd5b81358181111561285e5761285e6127ef565b8060051b604051601f19603f83011681018181108582111715612883576128836127ef565b6040529182528482019250838101850191898311156128a157600080fd5b938501935b828510156128bf578435845293850193928501926128a6565b8096505050505050509250929050565b6000806000606084860312156128e457600080fd5b505081359360208301359350604090920135919050565b6000806040838503121561290e57600080fd5b82356129198161257a565b946020939093013593505050565b6000806040838503121561293a57600080fd5b823591506020830135801515811461295157600080fd5b809150509250929050565b60008083601f84011261296e57600080fd5b50813567ffffffffffffffff81111561298657600080fd5b6020830191508360208260051b850101111561209b57600080fd5b6000806000806000606086880312156129b957600080fd5b85356129c48161257a565b9450602086013567ffffffffffffffff808211156129e157600080fd5b6129ed89838a0161295c565b90965094506040880135915080821115612a0657600080fd5b50612a138882890161295c565b969995985093965092949392505050565b634e487b7160e01b600052603260045260246000fd5b634e487b7160e01b600052601160045260246000fd5b8082018082111561186157611861612a3a565b600060018201612a7557612a75612a3a565b5060010190565b6020808252600f908201526e125b9d985b1a59081c1bdbdb081251608a1b604082015260600190565b6020808252600f908201526e125b9d985b1a59081b1bd8dac81251608a1b604082015260600190565b6020815260006125ac6020830184612700565b8181038181111561186157611861612a3a565b808202811582820484141761186157611861612a3a565b600082612b2857634e487b7160e01b600052601260045260246000fd5b500490565b634e487b7160e01b600052603160045260246000fdfea2646970667358221220c528a189b93bf2b947f2f99055bfdab741e8d6bef8ae9ab85c330efca079ac5f64736f6c63430008140033",
  "devdoc": {
    "errors": {
      "EnforcedPause()": [
        {
          "details": "The operation failed because the contract is paused."
        }
      ],
      "ExpectedPause()": [
        {
          "details": "The operation failed because the contract is not paused."
        }
      ],
      "OwnableInvalidOwner(address)": [
        {
          "details": "The owner is not a valid owner account. (eg. `address(0)`)"
        }
      ],
      "OwnableUnauthorizedAccount(address)": [
        {
          "details": "The caller account is not authorized to perform an operation."
        }
      ],
      "ReentrancyGuardReentrantCall()": [
        {
          "details": "Unauthorized reentrant call."
        }
      ],
      "SafeERC20FailedOperation(address)": [
        {
          "details": "An operation with an ERC-20 token failed."
        }
      ]
    },
    "events": {
      "Paused(address)": {
        "details": "Emitted when the pause is triggered by `account`."
      },
      "Unpaused(address)": {
        "details": "Emitted when the pause is lifted by `account`."
      }
    },
    "kind": "dev",
    "methods": {
      "addPool(address,uint256[],uint256[])": {
        "custom:events": "Emits PoolAdded event.",
        "details": "Add a new pool for staking.",
        "params": {
          "_lockPeriods": "The array of supported lock periods for the pool.",
          "_rewardRates": "The corresponding reward rates for each lock period.",
          "_stakingToken": "The token that will be staked in the pool."
        }
      },
      "calculateRewards(address,uint256)": {
        "details": "Calculates the pending rewards for a user based on their lock.",
        "params": {
          "lockId": "The ID of the lock to calculate rewards for.",
          "user": "The address of the user."
        },
        "returns": {
          "_0": "The amount of rewards earned for the specified lock."
        }
      },
      "claimRewards(uint256,uint256)": {
        "custom:events": "Emits RewardsClaimed event.",
        "details": "Claims rewards for a specific lock without unlocking the tokens.",
        "params": {
          "lockId": "The ID of the lock the rewards are being claimed for.",
          "poolId": "The ID of the pool the rewards are being claimed from."
        }
      },
      "constructor": {
        "details": "Constructor to initialize the contract with the reward token address.",
        "params": {
          "_rewardToken": "The address of the reward token contract."
        }
      },
      "emergencyUnlockAll()": {
        "custom:events": "Emits Unlocked event for each lock that is modified.",
        "custom:requirements": "Only callable by contract owner.",
        "custom:security-note": "This is a critical function that can override normal staking mechanics.",
        "details": "Emergency function to reset the lock period for all users, allowing immediate withdrawal."
      },
      "getLifetimeRewards(address)": {
        "details": "Retrieves the total rewards earned by a user.",
        "params": {
          "user": "The address of the user to check."
        },
        "returns": {
          "_0": "The total amount of rewards earned by the specified user."
        }
      },
      "getUserLocks(address)": {
        "details": "Retrieves the lock information for a specified user.",
        "params": {
          "user": "The address of the user whose locks to retrieve."
        },
        "returns": {
          "_0": "An array of LockInfo structures for the specified user."
        }
      },
      "owner()": {
        "details": "Returns the address of the current owner."
      },
      "pause()": {
        "details": "Pauses the staking functionality."
      },
      "paused()": {
        "details": "Returns true if the contract is paused, and false otherwise."
      },
      "recoverTokens(address,address,uint256)": {
        "details": "Allows the owner to recover any ERC20 tokens mistakenly sent to the contract.",
        "params": {
          "amount": "The amount of tokens to recover.",
          "to": "The address to send the recovered tokens to.",
          "token": "The address of the ERC20 token to recover."
        }
      },
      "renounceOwnership()": {
        "details": "Leaves the contract without owner. It will not be possible to call `onlyOwner` functions. Can only be called by the current owner. NOTE: Renouncing ownership will leave the contract without an owner, thereby disabling any functionality that is only available to the owner."
      },
      "setPoolStatus(uint256,bool)": {
        "custom:events": "Emits PoolStatusUpdated event.",
        "details": "Activate or deactivate a staking pool.",
        "params": {
          "isActive": "The new status of the pool (active or inactive).",
          "poolId": "The ID of the pool to update."
        }
      },
      "stake(uint256,uint256,uint256)": {
        "custom:events": "Emits Staked event.",
        "details": "Stake tokens in a specific pool with a lock period.",
        "params": {
          "_amount": "The amount of tokens to stake.",
          "_lockPeriod": "The duration for which the tokens will be locked.",
          "poolId": "The ID of the pool to stake in."
        }
      },
      "transferOwnership(address)": {
        "details": "Transfers ownership of the contract to a new account (`newOwner`). Can only be called by the current owner."
      },
      "unpause()": {
        "details": "Unpauses the staking functionality."
      },
      "unstake(uint256,uint256)": {
        "details": "Unstake tokens and claim rewards for a specific lock.",
        "params": {
          "lockId": "The ID of the lock to unlock.",
          "poolId": "The ID of the pool to unstake from."
        }
      },
      "updateRewardRates(uint256,uint256[])": {
        "custom:events": "Emits RewardRatesUpdated event.",
        "details": "Update the reward rates for a specific pool.",
        "params": {
          "newRewardRates": "The new reward rates corresponding to the existing lock periods.",
          "poolId": "The ID of the pool to update."
        }
      }
    },
    "version": 1
  },
  "userdoc": {
    "kind": "user",
    "methods": {
      "addPool(address,uint256[],uint256[])": {
        "notice": "Only callable by the contract owner.Lock periods and reward rates must match in length."
      },
      "emergencyUnlockAll()": {
        "notice": "This function should only be used in emergency situations where users need immediate access to their funds.This is a one-way operation and cannot be reversed.This function will unlock all locked tokens across all pools.Gas costs will increase with the number of pools and locked positions."
      },
      "pause()": {
        "notice": "Only callable by the contract owner."
      },
      "recoverTokens(address,address,uint256)": {
        "notice": "Only callable by the contract owner."
      },
      "setPoolStatus(uint256,bool)": {
        "notice": "Only callable by the contract owner."
      },
      "stake(uint256,uint256,uint256)": {
        "notice": "This function can be paused by the contract owner in case of emergencies."
      },
      "unpause()": {
        "notice": "Only callable by the contract owner."
      },
      "updateRewardRates(uint256,uint256[])": {
        "notice": "Only callable by the contract owner.Reward rates must match the number of lock periods."
      }
    },
    "version": 1
  },
  "storageLayout": {
    "storage": [
      {
        "astId": 8,
        "contract": "contracts/StakingVault.sol:StakingVault",
        "label": "_owner",
        "offset": 0,
        "slot": "0",
        "type": "t_address"
      },
      {
        "astId": 1843,
        "contract": "contracts/StakingVault.sol:StakingVault",
        "label": "_status",
        "offset": 0,
        "slot": "1",
        "type": "t_uint256"
      },
      {
        "astId": 1724,
        "contract": "contracts/StakingVault.sol:StakingVault",
        "label": "_paused",
        "offset": 0,
        "slot": "2",
        "type": "t_bool"
      },
      {
        "astId": 2101,
        "contract": "contracts/StakingVault.sol:StakingVault",
        "label": "pools",
        "offset": 0,
        "slot": "3",
        "type": "t_array(t_struct(Pool)2082_storage)dyn_storage"
      },
      {
        "astId": 2104,
        "contract": "contracts/StakingVault.sol:StakingVault",
        "label": "rewardToken",
        "offset": 0,
        "slot": "4",
        "type": "t_contract(RewardToken)2050"
      },
      {
        "astId": 2110,
        "contract": "contracts/StakingVault.sol:StakingVault",
        "label": "userLocks",
        "offset": 0,
        "slot": "5",
        "type": "t_mapping(t_address,t_array(t_struct(LockInfo)2097_storage)dyn_storage)"
      },
      {
        "astId": 2114,
        "contract": "contracts/StakingVault.sol:StakingVault",
        "label": "lifetimeRewards",
        "offset": 0,
        "slot": "6",
        "type": "t_mapping(t_address,t_uint256)"
      },
      {
        "astId": 2117,
        "contract": "contracts/StakingVault.sol:StakingVault",
        "label": "lockedUsers",
        "offset": 0,
        "slot": "7",
        "type": "t_array(t_address)dyn_storage"
      }
    ],
    "types": {
      "t_address": {
        "encoding": "inplace",
        "label": "address",
        "numberOfBytes": "20"
      },
      "t_array(t_address)dyn_storage": {
        "base": "t_address",
        "encoding": "dynamic_array",
        "label": "address[]",
        "numberOfBytes": "32"
      },
      "t_array(t_struct(LockInfo)2097_storage)dyn_storage": {
        "base": "t_struct(LockInfo)2097_storage",
        "encoding": "dynamic_array",
        "label": "struct StakingVault.LockInfo[]",
        "numberOfBytes": "32"
      },
      "t_array(t_struct(Pool)2082_storage)dyn_storage": {
        "base": "t_struct(Pool)2082_storage",
        "encoding": "dynamic_array",
        "label": "struct StakingVault.Pool[]",
        "numberOfBytes": "32"
      },
      "t_array(t_uint256)dyn_storage": {
        "base": "t_uint256",
        "encoding": "dynamic_array",
        "label": "uint256[]",
        "numberOfBytes": "32"
      },
      "t_bool": {
        "encoding": "inplace",
        "label": "bool",
        "numberOfBytes": "1"
      },
      "t_contract(IERC20)967": {
        "encoding": "inplace",
        "label": "contract IERC20",
        "numberOfBytes": "20"
      },
      "t_contract(RewardToken)2050": {
        "encoding": "inplace",
        "label": "contract RewardToken",
        "numberOfBytes": "20"
      },
      "t_mapping(t_address,t_array(t_struct(LockInfo)2097_storage)dyn_storage)": {
        "encoding": "mapping",
        "key": "t_address",
        "label": "mapping(address => struct StakingVault.LockInfo[])",
        "numberOfBytes": "32",
        "value": "t_array(t_struct(LockInfo)2097_storage)dyn_storage"
      },
      "t_mapping(t_address,t_uint256)": {
        "encoding": "mapping",
        "key": "t_address",
        "label": "mapping(address => uint256)",
        "numberOfBytes": "32",
        "value": "t_uint256"
      },
      "t_struct(LockInfo)2097_storage": {
        "encoding": "inplace",
        "label": "struct StakingVault.LockInfo",
        "members": [
          {
            "astId": 2084,
            "contract": "contracts/StakingVault.sol:StakingVault",
            "label": "lockId",
            "offset": 0,
            "slot": "0",
            "type": "t_uint256"
          },
          {
            "astId": 2086,
            "contract": "contracts/StakingVault.sol:StakingVault",
            "label": "amount",
            "offset": 0,
            "slot": "1",
            "type": "t_uint256"
          },
          {
            "astId": 2088,
            "contract": "contracts/StakingVault.sol:StakingVault",
            "label": "lockPeriod",
            "offset": 0,
            "slot": "2",
            "type": "t_uint256"
          },
          {
            "astId": 2090,
            "contract": "contracts/StakingVault.sol:StakingVault",
            "label": "unlockTime",
            "offset": 0,
            "slot": "3",
            "type": "t_uint256"
          },
          {
            "astId": 2092,
            "contract": "contracts/StakingVault.sol:StakingVault",
            "label": "lastClaimTime",
            "offset": 0,
            "slot": "4",
            "type": "t_uint256"
          },
          {
            "astId": 2094,
            "contract": "contracts/StakingVault.sol:StakingVault",
            "label": "poolId",
            "offset": 0,
            "slot": "5",
            "type": "t_uint256"
          },
          {
            "astId": 2096,
            "contract": "contracts/StakingVault.sol:StakingVault",
            "label": "isLocked",
            "offset": 0,
            "slot": "6",
            "type": "t_bool"
          }
        ],
        "numberOfBytes": "224"
      },
      "t_struct(Pool)2082_storage": {
        "encoding": "inplace",
        "label": "struct StakingVault.Pool",
        "members": [
          {
            "astId": 2070,
            "contract": "contracts/StakingVault.sol:StakingVault",
            "label": "poolId",
            "offset": 0,
            "slot": "0",
            "type": "t_uint256"
          },
          {
            "astId": 2073,
            "contract": "contracts/StakingVault.sol:StakingVault",
            "label": "stakingToken",
            "offset": 0,
            "slot": "1",
            "type": "t_contract(IERC20)967"
          },
          {
            "astId": 2076,
            "contract": "contracts/StakingVault.sol:StakingVault",
            "label": "lockPeriods",
            "offset": 0,
            "slot": "2",
            "type": "t_array(t_uint256)dyn_storage"
          },
          {
            "astId": 2079,
            "contract": "contracts/StakingVault.sol:StakingVault",
            "label": "rewardRates",
            "offset": 0,
            "slot": "3",
            "type": "t_array(t_uint256)dyn_storage"
          },
          {
            "astId": 2081,
            "contract": "contracts/StakingVault.sol:StakingVault",
            "label": "isActive",
            "offset": 0,
            "slot": "4",
            "type": "t_bool"
          }
        ],
        "numberOfBytes": "160"
      },
      "t_uint256": {
        "encoding": "inplace",
        "label": "uint256",
        "numberOfBytes": "32"
      }
    }
  }
}