{
  "address": "0xd4da3B53BE283Ed4708027295d3Bf112D2F5474D",
  "abi": [
    {
      "inputs": [
        {
          "internalType": "address",
          "name": "_rewardToken",
          "type": "address"
        }
      ],
      "stateMutability": "nonpayable",
      "type": "constructor"
    },
    {
      "inputs": [],
      "name": "EnforcedPause",
      "type": "error"
    },
    {
      "inputs": [],
      "name": "ExpectedPause",
      "type": "error"
    },
    {
      "inputs": [
        {
          "internalType": "address",
          "name": "owner",
          "type": "address"
        }
      ],
      "name": "OwnableInvalidOwner",
      "type": "error"
    },
    {
      "inputs": [
        {
          "internalType": "address",
          "name": "account",
          "type": "address"
        }
      ],
      "name": "OwnableUnauthorizedAccount",
      "type": "error"
    },
    {
      "inputs": [],
      "name": "ReentrancyGuardReentrantCall",
      "type": "error"
    },
    {
      "inputs": [
        {
          "internalType": "address",
          "name": "token",
          "type": "address"
        }
      ],
      "name": "SafeERC20FailedOperation",
      "type": "error"
    },
    {
      "anonymous": false,
      "inputs": [
        {
          "indexed": true,
          "internalType": "address",
          "name": "user",
          "type": "address"
        },
        {
          "indexed": true,
          "internalType": "uint256",
          "name": "lockId",
          "type": "uint256"
        },
        {
          "indexed": false,
          "internalType": "uint256",
          "name": "amount",
          "type": "uint256"
        },
        {
          "indexed": false,
          "internalType": "uint256",
          "name": "lockPeriod",
          "type": "uint256"
        },
        {
          "indexed": false,
          "internalType": "uint256",
          "name": "unlockTime",
          "type": "uint256"
        },
        {
          "indexed": false,
          "internalType": "uint256",
          "name": "poolId",
          "type": "uint256"
        }
      ],
      "name": "Locked",
      "type": "event"
    },
    {
      "anonymous": false,
      "inputs": [
        {
          "indexed": true,
          "internalType": "address",
          "name": "previousOwner",
          "type": "address"
        },
        {
          "indexed": true,
          "internalType": "address",
          "name": "newOwner",
          "type": "address"
        }
      ],
      "name": "OwnershipTransferred",
      "type": "event"
    },
    {
      "anonymous": false,
      "inputs": [
        {
          "indexed": false,
          "internalType": "address",
          "name": "account",
          "type": "address"
        }
      ],
      "name": "Paused",
      "type": "event"
    },
    {
      "anonymous": false,
      "inputs": [
        {
          "indexed": true,
          "internalType": "uint256",
          "name": "poolId",
          "type": "uint256"
        },
        {
          "indexed": true,
          "internalType": "address",
          "name": "stakingToken",
          "type": "address"
        }
      ],
      "name": "PoolAdded",
      "type": "event"
    },
    {
      "anonymous": false,
      "inputs": [
        {
          "indexed": true,
          "internalType": "uint256",
          "name": "poolId",
          "type": "uint256"
        },
        {
          "indexed": false,
          "internalType": "bool",
          "name": "isActive",
          "type": "bool"
        }
      ],
      "name": "PoolStatusUpdated",
      "type": "event"
    },
    {
      "anonymous": false,
      "inputs": [
        {
          "indexed": true,
          "internalType": "uint256",
          "name": "poolId",
          "type": "uint256"
        },
        {
          "indexed": false,
          "internalType": "uint256[]",
          "name": "newRewardRates",
          "type": "uint256[]"
        }
      ],
      "name": "RewardRatesUpdated",
      "type": "event"
    },
    {
      "anonymous": false,
      "inputs": [
        {
          "indexed": true,
          "internalType": "address",
          "name": "user",
          "type": "address"
        },
        {
          "indexed": true,
          "internalType": "uint256",
          "name": "poolId",
          "type": "uint256"
        },
        {
          "indexed": false,
          "internalType": "uint256",
          "name": "amount",
          "type": "uint256"
        }
      ],
      "name": "RewardsClaimed",
      "type": "event"
    },
    {
      "anonymous": false,
      "inputs": [
        {
          "indexed": true,
          "internalType": "address",
          "name": "user",
          "type": "address"
        },
        {
          "indexed": true,
          "internalType": "uint256",
          "name": "poolId",
          "type": "uint256"
        },
        {
          "indexed": false,
          "internalType": "uint256",
          "name": "amount",
          "type": "uint256"
        },
        {
          "indexed": false,
          "internalType": "uint256",
          "name": "lockPeriod",
          "type": "uint256"
        }
      ],
      "name": "Staked",
      "type": "event"
    },
    {
      "anonymous": false,
      "inputs": [
        {
          "indexed": true,
          "internalType": "address",
          "name": "user",
          "type": "address"
        },
        {
          "indexed": true,
          "internalType": "uint256",
          "name": "lockId",
          "type": "uint256"
        },
        {
          "indexed": false,
          "internalType": "uint256",
          "name": "amount",
          "type": "uint256"
        },
        {
          "indexed": false,
          "internalType": "uint256",
          "name": "poolId",
          "type": "uint256"
        }
      ],
      "name": "Unlocked",
      "type": "event"
    },
    {
      "anonymous": false,
      "inputs": [
        {
          "indexed": false,
          "internalType": "address",
          "name": "account",
          "type": "address"
        }
      ],
      "name": "Unpaused",
      "type": "event"
    },
    {
      "anonymous": false,
      "inputs": [
        {
          "indexed": true,
          "internalType": "address",
          "name": "user",
          "type": "address"
        },
        {
          "indexed": true,
          "internalType": "uint256",
          "name": "poolId",
          "type": "uint256"
        },
        {
          "indexed": false,
          "internalType": "uint256",
          "name": "amount",
          "type": "uint256"
        },
        {
          "indexed": false,
          "internalType": "uint256",
          "name": "reward",
          "type": "uint256"
        }
      ],
      "name": "Unstaked",
      "type": "event"
    },
    {
      "inputs": [
        {
          "internalType": "contract IERC20",
          "name": "_stakingToken",
          "type": "address"
        },
        {
          "internalType": "uint256[]",
          "name": "_lockPeriods",
          "type": "uint256[]"
        },
        {
          "internalType": "uint256[]",
          "name": "_rewardRates",
          "type": "uint256[]"
        }
      ],
      "name": "addPool",
      "outputs": [],
      "stateMutability": "nonpayable",
      "type": "function"
    },
    {
      "inputs": [
        {
          "internalType": "address",
          "name": "user",
          "type": "address"
        },
        {
          "internalType": "uint256",
          "name": "lockId",
          "type": "uint256"
        }
      ],
      "name": "calculateRewards",
      "outputs": [
        {
          "internalType": "uint256",
          "name": "",
          "type": "uint256"
        }
      ],
      "stateMutability": "view",
      "type": "function"
    },
    {
      "inputs": [
        {
          "internalType": "uint256",
          "name": "poolId",
          "type": "uint256"
        },
        {
          "internalType": "uint256",
          "name": "lockId",
          "type": "uint256"
        }
      ],
      "name": "claimRewards",
      "outputs": [],
      "stateMutability": "nonpayable",
      "type": "function"
    },
    {
      "inputs": [],
      "name": "emergencyUnlockAll",
      "outputs": [],
      "stateMutability": "nonpayable",
      "type": "function"
    },
    {
      "inputs": [
        {
          "internalType": "address",
          "name": "user",
          "type": "address"
        }
      ],
      "name": "getLifetimeRewards",
      "outputs": [
        {
          "internalType": "uint256",
          "name": "",
          "type": "uint256"
        }
      ],
      "stateMutability": "view",
      "type": "function"
    },
    {
      "inputs": [
        {
          "internalType": "address",
          "name": "user",
          "type": "address"
        }
      ],
      "name": "getUserLocks",
      "outputs": [
        {
          "components": [
            {
              "internalType": "uint256",
              "name": "lockId",
              "type": "uint256"
            },
            {
              "internalType": "uint256",
              "name": "amount",
              "type": "uint256"
            },
            {
              "internalType": "uint256",
              "name": "lockPeriod",
              "type": "uint256"
            },
            {
              "internalType": "uint256",
              "name": "unlockTime",
              "type": "uint256"
            },
            {
              "internalType": "uint256",
              "name": "lastClaimTime",
              "type": "uint256"
            },
            {
              "internalType": "uint256",
              "name": "poolId",
              "type": "uint256"
            },
            {
              "internalType": "bool",
              "name": "isLocked",
              "type": "bool"
            }
          ],
          "internalType": "struct StakingVault.LockInfo[]",
          "name": "",
          "type": "tuple[]"
        }
      ],
      "stateMutability": "view",
      "type": "function"
    },
    {
      "inputs": [
        {
          "internalType": "address",
          "name": "",
          "type": "address"
        }
      ],
      "name": "lifetimeRewards",
      "outputs": [
        {
          "internalType": "uint256",
          "name": "",
          "type": "uint256"
        }
      ],
      "stateMutability": "view",
      "type": "function"
    },
    {
      "inputs": [],
      "name": "owner",
      "outputs": [
        {
          "internalType": "address",
          "name": "",
          "type": "address"
        }
      ],
      "stateMutability": "view",
      "type": "function"
    },
    {
      "inputs": [],
      "name": "pause",
      "outputs": [],
      "stateMutability": "nonpayable",
      "type": "function"
    },
    {
      "inputs": [],
      "name": "paused",
      "outputs": [
        {
          "internalType": "bool",
          "name": "",
          "type": "bool"
        }
      ],
      "stateMutability": "view",
      "type": "function"
    },
    {
      "inputs": [
        {
          "internalType": "uint256",
          "name": "",
          "type": "uint256"
        }
      ],
      "name": "pools",
      "outputs": [
        {
          "internalType": "uint256",
          "name": "poolId",
          "type": "uint256"
        },
        {
          "internalType": "contract IERC20",
          "name": "stakingToken",
          "type": "address"
        },
        {
          "internalType": "bool",
          "name": "isActive",
          "type": "bool"
        }
      ],
      "stateMutability": "view",
      "type": "function"
    },
    {
      "inputs": [],
      "name": "renounceOwnership",
      "outputs": [],
      "stateMutability": "nonpayable",
      "type": "function"
    },
    {
      "inputs": [],
      "name": "rewardToken",
      "outputs": [
        {
          "internalType": "contract RewardToken",
          "name": "",
          "type": "address"
        }
      ],
      "stateMutability": "view",
      "type": "function"
    },
    {
      "inputs": [
        {
          "internalType": "uint256",
          "name": "poolId",
          "type": "uint256"
        },
        {
          "internalType": "bool",
          "name": "isActive",
          "type": "bool"
        }
      ],
      "name": "setPoolStatus",
      "outputs": [],
      "stateMutability": "nonpayable",
      "type": "function"
    },
    {
      "inputs": [
        {
          "internalType": "uint256",
          "name": "poolId",
          "type": "uint256"
        },
        {
          "internalType": "uint256",
          "name": "_amount",
          "type": "uint256"
        },
        {
          "internalType": "uint256",
          "name": "_lockPeriod",
          "type": "uint256"
        }
      ],
      "name": "stake",
      "outputs": [],
      "stateMutability": "nonpayable",
      "type": "function"
    },
    {
      "inputs": [
        {
          "internalType": "address",
          "name": "newOwner",
          "type": "address"
        }
      ],
      "name": "transferOwnership",
      "outputs": [],
      "stateMutability": "nonpayable",
      "type": "function"
    },
    {
      "inputs": [],
      "name": "unpause",
      "outputs": [],
      "stateMutability": "nonpayable",
      "type": "function"
    },
    {
      "inputs": [
        {
          "internalType": "uint256",
          "name": "poolId",
          "type": "uint256"
        },
        {
          "internalType": "uint256",
          "name": "lockId",
          "type": "uint256"
        }
      ],
      "name": "unstake",
      "outputs": [],
      "stateMutability": "nonpayable",
      "type": "function"
    },
    {
      "inputs": [
        {
          "internalType": "uint256",
          "name": "poolId",
          "type": "uint256"
        },
        {
          "internalType": "uint256[]",
          "name": "newRewardRates",
          "type": "uint256[]"
        }
      ],
      "name": "updateRewardRates",
      "outputs": [],
      "stateMutability": "nonpayable",
      "type": "function"
    },
    {
      "inputs": [
        {
          "internalType": "address",
          "name": "",
          "type": "address"
        },
        {
          "internalType": "uint256",
          "name": "",
          "type": "uint256"
        }
      ],
      "name": "userLocks",
      "outputs": [
        {
          "internalType": "uint256",
          "name": "lockId",
          "type": "uint256"
        },
        {
          "internalType": "uint256",
          "name": "amount",
          "type": "uint256"
        },
        {
          "internalType": "uint256",
          "name": "lockPeriod",
          "type": "uint256"
        },
        {
          "internalType": "uint256",
          "name": "unlockTime",
          "type": "uint256"
        },
        {
          "internalType": "uint256",
          "name": "lastClaimTime",
          "type": "uint256"
        },
        {
          "internalType": "uint256",
          "name": "poolId",
          "type": "uint256"
        },
        {
          "internalType": "bool",
          "name": "isLocked",
          "type": "bool"
        }
      ],
      "stateMutability": "view",
      "type": "function"
    },
    {
      "inputs": [
        {
          "internalType": "contract IERC20",
          "name": "token",
          "type": "address"
        },
        {
          "internalType": "address",
          "name": "to",
          "type": "address"
        },
        {
          "internalType": "uint256",
          "name": "amount",
          "type": "uint256"
        }
      ],
      "name": "withdrawTokens",
      "outputs": [],
      "stateMutability": "nonpayable",
      "type": "function"
    }
  ],
  "transactionHash": "0xd56fdba7f34cee20bf75186f044d70e25403155923c128c49489a8298869f08f",
  "args": [
    "0xC7CdA2b9B7A644cd1e2287D8C69a1Ce78b4c6b45"
  ],
  "numDeployments": 1,
  "solcInputHash": "9cb232f727eade4eae38b232623be720",
  "bytecode": "0x60806040523480156200001157600080fd5b50604051620020f4380380620020f48339810160408190526200003491620000eb565b33806200005b57604051631e4fbdf760e01b81526000600482015260240160405180910390fd5b62000066816200009b565b50600180556002805460ff19169055600480546001600160a01b0319166001600160a01b03929092169190911790556200011d565b600080546001600160a01b038381166001600160a01b0319831681178455604051919092169283917f8be0079c531659141344cd1fd0a4f28419497f9722a3daafe3b4186f6b6457e09190a35050565b600060208284031215620000fe57600080fd5b81516001600160a01b03811681146200011657600080fd5b9392505050565b611fc7806200012d6000396000f3fe608060405234801561001057600080fd5b50600436106101375760003560e01c80639361983c116100b8578063bbcaf3fe1161007c578063bbcaf3fe146102ee578063beb8314c14610301578063e20cc07914610314578063efea2d5c1461031c578063f2fde38b1461032f578063f7c618c11461034257600080fd5b80639361983c146102335780639e2c8a5b14610246578063a638f2e214610259578063aa33fedb1461026c578063ac4afa38146102b657600080fd5b80635e35359e116100ff5780635e35359e146101c2578063715018a6146101d55780637d3f0e7d146101dd5780638456cb59146102065780638da5cb5b1461020e57600080fd5b80631d336d621461013c57806323a35de91461016f5780633f4ba83a1461018f578063594dd432146101995780635c975abb146101ac575b600080fd5b61015c61014a366004611afe565b60066020526000908152604090205481565b6040519081526020015b60405180910390f35b61018261017d366004611afe565b610355565b6040516101669190611b22565b61019761040f565b005b6101976101a7366004611ba6565b610421565b60025460ff166040519015158152602001610166565b6101976101d0366004611bc8565b6105dc565b610197610653565b61015c6101eb366004611afe565b6001600160a01b031660009081526006602052604090205490565b610197610665565b6000546001600160a01b03165b6040516001600160a01b039091168152602001610166565b610197610241366004611c1f565b610675565b610197610254366004611ba6565b6107a4565b610197610267366004611ce9565b610a9a565b61027f61027a366004611d15565b610cd0565b604080519788526020880196909652948601939093526060850191909152608084015260a0830152151560c082015260e001610166565b6102c96102c4366004611d41565b610d2d565b604080519384526001600160a01b039092166020840152151590820152606001610166565b6101976102fc366004611d5a565b610d6f565b61015c61030f366004611d15565b610e3a565b610197610fbb565b61019761032a366004611dd4565b6110b4565b61019761033d366004611afe565b6112db565b60045461021b906001600160a01b031681565b6001600160a01b0381166000908152600560209081526040808320805482518185028101850190935280835260609492939192909184015b828210156104045760008481526020908190206040805160e0810182526007860290920180548352600180820154848601526002820154928401929092526003810154606084015260048101546080840152600581015460a08401526006015460ff16151560c0830152908352909201910161038d565b505050509050919050565b610417611316565b61041f611343565b565b600354821061044b5760405162461bcd60e51b815260040161044290611e57565b60405180910390fd5b3360009081526005602052604090205481106104795760405162461bcd60e51b815260040161044290611e80565b60006104853383610e3a565b9050600081116104ce5760405162461bcd60e51b81526020600482015260146024820152734e6f207265776172647320617661696c61626c6560601b6044820152606401610442565b600480546040516340c10f1960e01b81523392810192909252602482018390526001600160a01b0316906340c10f1990604401600060405180830381600087803b15801561051b57600080fd5b505af115801561052f573d6000803e3d6000fd5b50503360009081526006602052604081208054859450909250610553908490611ebf565b909155505033600090815260056020526040812080548490811061057957610579611ed2565b9060005260206000209060070201905042816004018190555083336001600160a01b03167fdacbdde355ba930696a362ea6738feb9f8bd52dfb3d81947558fd3217e23e325846040516105ce91815260200190565b60405180910390a350505050565b6105e4611316565b6001600160a01b03821661063a5760405162461bcd60e51b815260206004820152601f60248201527f43616e6e6f7420776974686472617720746f207a65726f2061646472657373006044820152606401610442565b61064e6001600160a01b0384168383611395565b505050565b61065b611316565b61041f60006113f4565b61066d611316565b61041f611444565b61067d611316565b60035482106106c45760405162461bcd60e51b8152602060048201526013602482015272141bdbdb08191bd95cc81b9bdd08195e1a5cdd606a1b6044820152606401610442565b6000600383815481106106d9576106d9611ed2565b9060005260206000209060050201905081518160020180549050146107515760405162461bcd60e51b815260206004820152602860248201527f4d69736d617463686564206c6f636b20706572696f647320616e642072657761604482015267726420726174657360c01b6064820152608401610442565b81516107669060038301906020850190611a89565b50827fbda750cbf366482de2e4f9ae114a7cd7cf47576f6ddb09118dd445466d413927836040516107979190611ee8565b60405180910390a2505050565b60035482106107c55760405162461bcd60e51b815260040161044290611e57565b3360009081526005602052604090205481106107f35760405162461bcd60e51b815260040161044290611e80565b60006003838154811061080857610808611ed2565b60009182526020918290206040805160a08101825260059093029091018054835260018101546001600160a01b031683850152600281018054835181870281018701855281815294959294938601939283018282801561088757602002820191906000526020600020905b815481526020019060010190808311610873575b50505050508152602001600382018054806020026020016040519081016040528092919081815260200182805480156108df57602002820191906000526020600020905b8154815260200190600101908083116108cb575b50505091835250506004919091015460ff161515602090910152905060006109073384610e3a565b90506000806109163386611481565b9150915080156109685760405162461bcd60e51b815260206004820152601860248201527f4c6f636b20706572696f64206e6f7420796574206f76657200000000000000006044820152606401610442565b600480546040516340c10f1960e01b81523392810192909252602482018590526001600160a01b0316906340c10f1990604401600060405180830381600087803b1580156109b557600080fd5b505af11580156109c9573d6000803e3d6000fd5b50505060208501516109e691506001600160a01b03163384611395565b3360009081526006602052604081208054859290610a05908490611ebf565b9091555050336000908152600560205260408120805487908110610a2b57610a2b611ed2565b9060005260206000209060070201905042816004018190555086336001600160a01b03167f204fccf0d92ed8d48f204adb39b2e81e92bad0dedb93f5716ca9478cfb57de008587604051610a89929190918252602082015260400190565b60405180910390a350505050505050565b610aa2611651565b6003548310610ac35760405162461bcd60e51b815260040161044290611e57565b600060038481548110610ad857610ad8611ed2565b60009182526020918290206040805160a08101825260059093029091018054835260018101546001600160a01b0316838501526002810180548351818702810187018552818152949592949386019392830182828015610b5757602002820191906000526020600020905b815481526020019060010190808311610b43575b5050505050815260200160038201805480602002602001604051908101604052809291908181526020018280548015610baf57602002820191906000526020600020905b815481526020019060010190808311610b9b575b50505091835250506004919091015460ff1615156020909101526080810151909150610c125760405162461bcd60e51b8152602060048201526012602482015271506f6f6c206973206e6f742061637469766560701b6044820152606401610442565b6000610c1e8584611675565b905060008111610c665760405162461bcd60e51b8152602060048201526013602482015272125b9d985b1a59081b1bd8dac81c195c9a5bd9606a1b6044820152606401610442565b6020820151610c80906001600160a01b0316333087611716565b610c8c33868686611755565b6040805185815260208101859052869133917fb4caaf29adda3eefee3ad552a8e85058589bf834c7466cae4ee58787f70589ed910160405180910390a35050505050565b60056020528160005260406000208181548110610cec57600080fd5b600091825260209091206007909102018054600182015460028301546003840154600485015460058601546006909601549497509295509093909260ff1687565b60038181548110610d3d57600080fd5b60009182526020909120600590910201805460018201546004909201549092506001600160a01b039091169060ff1683565b610d77611316565b6003548210610dbe5760405162461bcd60e51b8152602060048201526013602482015272141bdbdb08191bd95cc81b9bdd08195e1a5cdd606a1b6044820152606401610442565b8060038381548110610dd257610dd2611ed2565b906000526020600020906005020160040160006101000a81548160ff021916908315150217905550817f42e14968ae1060172ac61821229b29fcbdb6c4ea07455d1610d026cff117b63e82604051610e2e911515815260200190565b60405180910390a25050565b6001600160a01b038216600090815260056020526040812080548291429183919086908110610e6b57610e6b611ed2565b600091825260208083206040805160e08101825260079094029091018054845260018101549284019290925260028201549083018190526003820154606084015260048201546080840152600582015460a0840181905260069092015460ff16151560c0840152919350610ede91611675565b905060008111610f275760405162461bcd60e51b815260206004820152601460248201527324b73b30b634b2103637b1b5903832b934b7b21760611b6044820152606401610442565b8160c0015115610fae57600080836080015111610f575782604001518360600151610f529190611f2c565b610f5d565b82608001515b610f679085611f2c565b90508260400151612710610f7b9190611f3f565b81838560200151610f8c9190611f3f565b610f969190611f3f565b610fa09190611f56565b610faa9086611ebf565b9450505b5091925050505b92915050565b610fc3611316565b60005b6003548110156110b15760005b3360009081526005602052604090205481101561109e5733600090815260056020526040812080548390811061100b5761100b611ed2565b60009182526020909120600790910201600681015490915060ff161561108b5760068101805460ff1916905542600382015580546001820154600583015460405133927f5245d528087a96a64f4589a764f00061e4671eab90cb1e019b1a5b24b2e4c2a89261108292918252602082015260400190565b60405180910390a35b508061109681611f78565b915050610fd3565b50806110a981611f78565b915050610fc6565b50565b6110bc611316565b6001600160a01b0385166111125760405162461bcd60e51b815260206004820152601d60248201527f496e76616c6964207374616b696e6720746f6b656e20616464726573730000006044820152606401610442565b82811461116b5760405162461bcd60e51b815260206004820152602160248201527f4d69736d617463686564206c6f636b20706572696f647320616e6420726174656044820152607360f81b6064820152608401610442565b6000600380549050905060036040518060a00160405280838152602001886001600160a01b031681526020018787808060200260200160405190810160405280939291908181526020018383602002808284376000920191909152505050908252506040805160208781028281018201909352878252928301929091889188918291850190849080828437600092018290525093855250506001602093840181905285548082018755958352918390208451600590960201948555508282015190840180546001600160a01b0319166001600160a01b03909216919091179055604082015180519293926112659260028501920190611a89565b5060608201518051611281916003840191602090910190611a89565b50608091909101516004909101805460ff19169115159190911790556040516001600160a01b0387169082907f1f1f6396247a5ba59b7b1e094ec3a8e439d4dace0c5ac4fe3ecfde3e68e03a8a90600090a3505050505050565b6112e3611316565b6001600160a01b03811661130d57604051631e4fbdf760e01b815260006004820152602401610442565b6110b1816113f4565b6000546001600160a01b0316331461041f5760405163118cdaa760e01b8152336004820152602401610442565b61134b6119f5565b6002805460ff191690557f5db9ee0a495bf2e6ff9c91a7834c1ba4fdd244a5e8aa4e537bd38aeae4b073aa335b6040516001600160a01b03909116815260200160405180910390a1565b6040516001600160a01b0383811660248301526044820183905261064e91859182169063a9059cbb906064015b604051602081830303815290604052915060e01b6020820180516001600160e01b038381831617835250505050611a18565b600080546001600160a01b038381166001600160a01b0319831681178455604051919092169283917f8be0079c531659141344cd1fd0a4f28419497f9722a3daafe3b4186f6b6457e09190a35050565b61144c611651565b6002805460ff191660011790557f62e78cea01bee320cd4e420270b5ea74000d11b0c9f74754ebdbfc544b05a2586113783390565b6000806001600160a01b0384166114d15760405162461bcd60e51b8152602060048201526014602482015273496e76616c69642075736572206164647265737360601b6044820152606401610442565b6001600160a01b03841660009081526005602052604090205483106115085760405162461bcd60e51b815260040161044290611e80565b6001600160a01b038416600090815260056020526040812080548590811061153257611532611ed2565b90600052602060002090600702019050806003015442101561158d5760405162461bcd60e51b81526020600482015260146024820152732637b1b5903832b934b7b2103737ba1037bb32b960611b6044820152606401610442565b600681015460ff166115d95760405162461bcd60e51b8152602060048201526015602482015274131bd8dac8185b1c9958591e481d5b9b1bd8dad959605a1b6044820152606401610442565b60068101805460ff191690556001810154600582015460408051928352602083019190915285916001600160a01b038816917f5245d528087a96a64f4589a764f00061e4671eab90cb1e019b1a5b24b2e4c2a8910160405180910390a3600181015460069091015490925060ff1690505b9250929050565b60025460ff161561041f5760405163d93c066560e01b815260040160405180910390fd5b6000806003848154811061168b5761168b611ed2565b9060005260206000209060050201905060005b600282015481101561170b57838260020182815481106116c0576116c0611ed2565b9060005260206000200154036116f9578160030181815481106116e5576116e5611ed2565b906000526020600020015492505050610fb5565b8061170381611f78565b91505061169e565b506000949350505050565b6040516001600160a01b03848116602483015283811660448301526064820183905261174f9186918216906323b872dd906084016113c2565b50505050565b6001600160a01b0384166117a25760405162461bcd60e51b8152602060048201526014602482015273496e76616c69642075736572206164647265737360601b6044820152606401610442565b60035483106117c35760405162461bcd60e51b815260040161044290611e57565b600082116118135760405162461bcd60e51b815260206004820181905260248201527f416d6f756e74206d7573742062652067726561746572207468616e207a65726f6044820152606401610442565b600081116118715760405162461bcd60e51b815260206004820152602560248201527f4c6f636b20706572696f64206d7573742062652067726561746572207468616e604482015264207a65726f60d81b6064820152608401610442565b600061187d8242611ebf565b9050600060056000876001600160a01b03166001600160a01b0316815260200190815260200160002080549050905060056000876001600160a01b03166001600160a01b031681526020019081526020016000206040518060e0016040528083815260200186815260200185815260200184815260200160008152602001878152602001600115158152509080600181540180825580915050600190039060005260206000209060070201600090919091909150600082015181600001556020820151816001015560408201518160020155606082015181600301556080820151816004015560a0820151816005015560c08201518160060160006101000a81548160ff021916908315150217905550505080866001600160a01b03167fa0b15b5afbd8adc1efc429bc38aa12b0f04d6b9b7ab93f6ec76d54603b4be0ee8686868a6040516119e5949392919093845260208401929092526040830152606082015260800190565b60405180910390a3505050505050565b60025460ff1661041f57604051638dfc202b60e01b815260040160405180910390fd5b600080602060008451602086016000885af180611a3b576040513d6000823e3d81fd5b50506000513d91508115611a53578060011415611a60565b6001600160a01b0384163b155b1561174f57604051635274afe760e01b81526001600160a01b0385166004820152602401610442565b828054828255906000526020600020908101928215611ac4579160200282015b82811115611ac4578251825591602001919060010190611aa9565b50611ad0929150611ad4565b5090565b5b80821115611ad05760008155600101611ad5565b6001600160a01b03811681146110b157600080fd5b600060208284031215611b1057600080fd5b8135611b1b81611ae9565b9392505050565b602080825282518282018190526000919060409081850190868401855b82811015611b995781518051855286810151878601528581015186860152606080820151908601526080808201519086015260a0808201519086015260c09081015115159085015260e09093019290850190600101611b3f565b5091979650505050505050565b60008060408385031215611bb957600080fd5b50508035926020909101359150565b600080600060608486031215611bdd57600080fd5b8335611be881611ae9565b92506020840135611bf881611ae9565b929592945050506040919091013590565b634e487b7160e01b600052604160045260246000fd5b60008060408385031215611c3257600080fd5b8235915060208084013567ffffffffffffffff80821115611c5257600080fd5b818601915086601f830112611c6657600080fd5b813581811115611c7857611c78611c09565b8060051b604051601f19603f83011681018181108582111715611c9d57611c9d611c09565b604052918252848201925083810185019189831115611cbb57600080fd5b938501935b82851015611cd957843584529385019392850192611cc0565b8096505050505050509250929050565b600080600060608486031215611cfe57600080fd5b505081359360208301359350604090920135919050565b60008060408385031215611d2857600080fd5b8235611d3381611ae9565b946020939093013593505050565b600060208284031215611d5357600080fd5b5035919050565b60008060408385031215611d6d57600080fd5b8235915060208301358015158114611d8457600080fd5b809150509250929050565b60008083601f840112611da157600080fd5b50813567ffffffffffffffff811115611db957600080fd5b6020830191508360208260051b850101111561164a57600080fd5b600080600080600060608688031215611dec57600080fd5b8535611df781611ae9565b9450602086013567ffffffffffffffff80821115611e1457600080fd5b611e2089838a01611d8f565b90965094506040880135915080821115611e3957600080fd5b50611e4688828901611d8f565b969995985093965092949392505050565b6020808252600f908201526e125b9d985b1a59081c1bdbdb081251608a1b604082015260600190565b6020808252600f908201526e125b9d985b1a59081b1bd8dac81251608a1b604082015260600190565b634e487b7160e01b600052601160045260246000fd5b80820180821115610fb557610fb5611ea9565b634e487b7160e01b600052603260045260246000fd5b6020808252825182820181905260009190848201906040850190845b81811015611f2057835183529284019291840191600101611f04565b50909695505050505050565b81810381811115610fb557610fb5611ea9565b8082028115828204841417610fb557610fb5611ea9565b600082611f7357634e487b7160e01b600052601260045260246000fd5b500490565b600060018201611f8a57611f8a611ea9565b506001019056fea264697066735822122059711a8800305db9d47898ce51348624cf71c9562b08a51602f7f372b08181b164736f6c63430008140033",
  "devdoc": {
    "errors": {
      "EnforcedPause()": [
        {
          "details": "The operation failed because the contract is paused."
        }
      ],
      "ExpectedPause()": [
        {
          "details": "The operation failed because the contract is not paused."
        }
      ],
      "OwnableInvalidOwner(address)": [
        {
          "details": "The owner is not a valid owner account. (eg. `address(0)`)"
        }
      ],
      "OwnableUnauthorizedAccount(address)": [
        {
          "details": "The caller account is not authorized to perform an operation."
        }
      ],
      "ReentrancyGuardReentrantCall()": [
        {
          "details": "Unauthorized reentrant call."
        }
      ],
      "SafeERC20FailedOperation(address)": [
        {
          "details": "An operation with an ERC-20 token failed."
        }
      ]
    },
    "events": {
      "Paused(address)": {
        "details": "Emitted when the pause is triggered by `account`."
      },
      "Unpaused(address)": {
        "details": "Emitted when the pause is lifted by `account`."
      }
    },
    "kind": "dev",
    "methods": {
      "addPool(address,uint256[],uint256[])": {
        "custom:events": "Emits PoolAdded event.",
        "details": "Add a new pool for staking.",
        "params": {
          "_lockPeriods": "The array of supported lock periods for the pool.",
          "_rewardRates": "The corresponding reward rates for each lock period.",
          "_stakingToken": "The token that will be staked in the pool."
        }
      },
      "calculateRewards(address,uint256)": {
        "details": "Calculates the pending rewards for a user based on their lock.",
        "params": {
          "lockId": "The ID of the lock to calculate rewards for.",
          "user": "The address of the user."
        },
        "returns": {
          "_0": "The amount of rewards earned for the specified lock."
        }
      },
      "claimRewards(uint256,uint256)": {
        "custom:events": "Emits RewardsClaimed event.",
        "details": "Claims rewards for a specific lock without unlocking the tokens.",
        "params": {
          "lockId": "The ID of the lock the rewards are being claimed for.",
          "poolId": "The ID of the pool the rewards are being claimed from."
        }
      },
      "constructor": {
        "details": "Constructor to initialize the contract with the reward token address.",
        "params": {
          "_rewardToken": "The address of the reward token contract."
        }
      },
      "emergencyUnlockAll()": {
        "custom:events": "Emits Unlocked event for each lock that is modified.",
        "custom:requirements": "Only callable by contract owner.",
        "custom:security-note": "This is a critical function that can override normal staking mechanics.",
        "details": "Emergency function to reset the lock period for all users, allowing immediate withdrawal."
      },
      "getLifetimeRewards(address)": {
        "details": "Retrieves the total rewards earned by a user.",
        "params": {
          "user": "The address of the user to check."
        },
        "returns": {
          "_0": "The total amount of rewards earned by the specified user."
        }
      },
      "getUserLocks(address)": {
        "details": "Retrieves the lock information for a specified user.",
        "params": {
          "user": "The address of the user whose locks to retrieve."
        },
        "returns": {
          "_0": "An array of LockInfo structures for the specified user."
        }
      },
      "owner()": {
        "details": "Returns the address of the current owner."
      },
      "pause()": {
        "details": "Pauses the staking functionality."
      },
      "paused()": {
        "details": "Returns true if the contract is paused, and false otherwise."
      },
      "renounceOwnership()": {
        "details": "Leaves the contract without owner. It will not be possible to call `onlyOwner` functions. Can only be called by the current owner. NOTE: Renouncing ownership will leave the contract without an owner, thereby disabling any functionality that is only available to the owner."
      },
      "setPoolStatus(uint256,bool)": {
        "custom:events": "Emits PoolStatusUpdated event.",
        "details": "Activate or deactivate a staking pool.",
        "params": {
          "isActive": "The new status of the pool (active or inactive).",
          "poolId": "The ID of the pool to update."
        }
      },
      "stake(uint256,uint256,uint256)": {
        "custom:events": "Emits Staked event.",
        "details": "Stake tokens in a specific pool with a lock period.",
        "params": {
          "_amount": "The amount of tokens to stake.",
          "_lockPeriod": "The duration for which the tokens will be locked.",
          "poolId": "The ID of the pool to stake in."
        }
      },
      "transferOwnership(address)": {
        "details": "Transfers ownership of the contract to a new account (`newOwner`). Can only be called by the current owner."
      },
      "unpause()": {
        "details": "Unpauses the staking functionality."
      },
      "unstake(uint256,uint256)": {
        "details": "Unstake tokens and claim rewards for a specific lock.",
        "params": {
          "lockId": "The ID of the lock to unlock.",
          "poolId": "The ID of the pool to unstake from."
        }
      },
      "updateRewardRates(uint256,uint256[])": {
        "custom:events": "Emits RewardRatesUpdated event.",
        "details": "Update the reward rates for a specific pool.",
        "params": {
          "newRewardRates": "The new reward rates corresponding to the existing lock periods.",
          "poolId": "The ID of the pool to update."
        }
      },
      "withdrawTokens(address,address,uint256)": {
        "details": "Allows the owner to withdraw any ERC20 tokens mistakenly sent to the contract.",
        "params": {
          "amount": "The amount of tokens to withdraw.",
          "to": "The address to send the withdrawn tokens to.",
          "token": "The address of the ERC20 token to withdraw."
        }
      }
    },
    "version": 1
  },
  "userdoc": {
    "kind": "user",
    "methods": {
      "addPool(address,uint256[],uint256[])": {
        "notice": "Only callable by the contract owner.Lock periods and reward rates must match in length."
      },
      "emergencyUnlockAll()": {
        "notice": "This function should only be used in emergency situations where users need immediate access to their funds.This is a one-way operation and cannot be reversed.This function will unlock all locked tokens across all pools.Gas costs will increase with the number of pools and locked positions."
      },
      "pause()": {
        "notice": "Only callable by the contract owner."
      },
      "setPoolStatus(uint256,bool)": {
        "notice": "Only callable by the contract owner."
      },
      "stake(uint256,uint256,uint256)": {
        "notice": "This function can be paused by the contract owner in case of emergencies."
      },
      "unpause()": {
        "notice": "Only callable by the contract owner."
      },
      "updateRewardRates(uint256,uint256[])": {
        "notice": "Only callable by the contract owner.Reward rates must match the number of lock periods."
      },
      "withdrawTokens(address,address,uint256)": {
        "notice": "Only callable by the contract owner."
      }
    },
    "version": 1
  },
  "storageLayout": {
    "storage": [
      {
        "astId": 8,
        "contract": "contracts/StakingVault.sol:StakingVault",
        "label": "_owner",
        "offset": 0,
        "slot": "0",
        "type": "t_address"
      },
      {
        "astId": 1843,
        "contract": "contracts/StakingVault.sol:StakingVault",
        "label": "_status",
        "offset": 0,
        "slot": "1",
        "type": "t_uint256"
      },
      {
        "astId": 1724,
        "contract": "contracts/StakingVault.sol:StakingVault",
        "label": "_paused",
        "offset": 0,
        "slot": "2",
        "type": "t_bool"
      },
      {
        "astId": 2101,
        "contract": "contracts/StakingVault.sol:StakingVault",
        "label": "pools",
        "offset": 0,
        "slot": "3",
        "type": "t_array(t_struct(Pool)2082_storage)dyn_storage"
      },
      {
        "astId": 2104,
        "contract": "contracts/StakingVault.sol:StakingVault",
        "label": "rewardToken",
        "offset": 0,
        "slot": "4",
        "type": "t_contract(RewardToken)2050"
      },
      {
        "astId": 2110,
        "contract": "contracts/StakingVault.sol:StakingVault",
        "label": "userLocks",
        "offset": 0,
        "slot": "5",
        "type": "t_mapping(t_address,t_array(t_struct(LockInfo)2097_storage)dyn_storage)"
      },
      {
        "astId": 2114,
        "contract": "contracts/StakingVault.sol:StakingVault",
        "label": "lifetimeRewards",
        "offset": 0,
        "slot": "6",
        "type": "t_mapping(t_address,t_uint256)"
      }
    ],
    "types": {
      "t_address": {
        "encoding": "inplace",
        "label": "address",
        "numberOfBytes": "20"
      },
      "t_array(t_struct(LockInfo)2097_storage)dyn_storage": {
        "base": "t_struct(LockInfo)2097_storage",
        "encoding": "dynamic_array",
        "label": "struct StakingVault.LockInfo[]",
        "numberOfBytes": "32"
      },
      "t_array(t_struct(Pool)2082_storage)dyn_storage": {
        "base": "t_struct(Pool)2082_storage",
        "encoding": "dynamic_array",
        "label": "struct StakingVault.Pool[]",
        "numberOfBytes": "32"
      },
      "t_array(t_uint256)dyn_storage": {
        "base": "t_uint256",
        "encoding": "dynamic_array",
        "label": "uint256[]",
        "numberOfBytes": "32"
      },
      "t_bool": {
        "encoding": "inplace",
        "label": "bool",
        "numberOfBytes": "1"
      },
      "t_contract(IERC20)967": {
        "encoding": "inplace",
        "label": "contract IERC20",
        "numberOfBytes": "20"
      },
      "t_contract(RewardToken)2050": {
        "encoding": "inplace",
        "label": "contract RewardToken",
        "numberOfBytes": "20"
      },
      "t_mapping(t_address,t_array(t_struct(LockInfo)2097_storage)dyn_storage)": {
        "encoding": "mapping",
        "key": "t_address",
        "label": "mapping(address => struct StakingVault.LockInfo[])",
        "numberOfBytes": "32",
        "value": "t_array(t_struct(LockInfo)2097_storage)dyn_storage"
      },
      "t_mapping(t_address,t_uint256)": {
        "encoding": "mapping",
        "key": "t_address",
        "label": "mapping(address => uint256)",
        "numberOfBytes": "32",
        "value": "t_uint256"
      },
      "t_struct(LockInfo)2097_storage": {
        "encoding": "inplace",
        "label": "struct StakingVault.LockInfo",
        "members": [
          {
            "astId": 2084,
            "contract": "contracts/StakingVault.sol:StakingVault",
            "label": "lockId",
            "offset": 0,
            "slot": "0",
            "type": "t_uint256"
          },
          {
            "astId": 2086,
            "contract": "contracts/StakingVault.sol:StakingVault",
            "label": "amount",
            "offset": 0,
            "slot": "1",
            "type": "t_uint256"
          },
          {
            "astId": 2088,
            "contract": "contracts/StakingVault.sol:StakingVault",
            "label": "lockPeriod",
            "offset": 0,
            "slot": "2",
            "type": "t_uint256"
          },
          {
            "astId": 2090,
            "contract": "contracts/StakingVault.sol:StakingVault",
            "label": "unlockTime",
            "offset": 0,
            "slot": "3",
            "type": "t_uint256"
          },
          {
            "astId": 2092,
            "contract": "contracts/StakingVault.sol:StakingVault",
            "label": "lastClaimTime",
            "offset": 0,
            "slot": "4",
            "type": "t_uint256"
          },
          {
            "astId": 2094,
            "contract": "contracts/StakingVault.sol:StakingVault",
            "label": "poolId",
            "offset": 0,
            "slot": "5",
            "type": "t_uint256"
          },
          {
            "astId": 2096,
            "contract": "contracts/StakingVault.sol:StakingVault",
            "label": "isLocked",
            "offset": 0,
            "slot": "6",
            "type": "t_bool"
          }
        ],
        "numberOfBytes": "224"
      },
      "t_struct(Pool)2082_storage": {
        "encoding": "inplace",
        "label": "struct StakingVault.Pool",
        "members": [
          {
            "astId": 2070,
            "contract": "contracts/StakingVault.sol:StakingVault",
            "label": "poolId",
            "offset": 0,
            "slot": "0",
            "type": "t_uint256"
          },
          {
            "astId": 2073,
            "contract": "contracts/StakingVault.sol:StakingVault",
            "label": "stakingToken",
            "offset": 0,
            "slot": "1",
            "type": "t_contract(IERC20)967"
          },
          {
            "astId": 2076,
            "contract": "contracts/StakingVault.sol:StakingVault",
            "label": "lockPeriods",
            "offset": 0,
            "slot": "2",
            "type": "t_array(t_uint256)dyn_storage"
          },
          {
            "astId": 2079,
            "contract": "contracts/StakingVault.sol:StakingVault",
            "label": "rewardRates",
            "offset": 0,
            "slot": "3",
            "type": "t_array(t_uint256)dyn_storage"
          },
          {
            "astId": 2081,
            "contract": "contracts/StakingVault.sol:StakingVault",
            "label": "isActive",
            "offset": 0,
            "slot": "4",
            "type": "t_bool"
          }
        ],
        "numberOfBytes": "160"
      },
      "t_uint256": {
        "encoding": "inplace",
        "label": "uint256",
        "numberOfBytes": "32"
      }
    }
  }
}